{
  "contractName": "Monopoly",
  "abi": [
    {
      "inputs": [],
      "payable": false,
      "stateMutability": "nonpayable",
      "type": "constructor"
    },
    {
      "anonymous": false,
      "inputs": [
        {
          "indexed": false,
          "internalType": "string",
          "name": "name",
          "type": "string"
        },
        {
          "indexed": false,
          "internalType": "uint8",
          "name": "position",
          "type": "uint8"
        },
        {
          "indexed": false,
          "internalType": "string",
          "name": "action",
          "type": "string"
        }
      ],
      "name": "actionHappened",
      "type": "event"
    },
    {
      "anonymous": false,
      "inputs": [
        {
          "indexed": true,
          "internalType": "string",
          "name": "name",
          "type": "string"
        },
        {
          "indexed": false,
          "internalType": "uint8",
          "name": "dice",
          "type": "uint8"
        }
      ],
      "name": "moveIsMade",
      "type": "event"
    },
    {
      "anonymous": false,
      "inputs": [
        {
          "indexed": true,
          "internalType": "string",
          "name": "name",
          "type": "string"
        },
        {
          "indexed": false,
          "internalType": "uint8",
          "name": "station",
          "type": "uint8"
        }
      ],
      "name": "stationBought",
      "type": "event"
    },
    {
      "constant": true,
      "inputs": [],
      "name": "getMaxNumberOfPlayers",
      "outputs": [
        {
          "internalType": "uint256",
          "name": "",
          "type": "uint256"
        }
      ],
      "payable": false,
      "stateMutability": "pure",
      "type": "function"
    },
    {
      "constant": true,
      "inputs": [],
      "name": "getNumberOfStations",
      "outputs": [
        {
          "internalType": "uint256",
          "name": "",
          "type": "uint256"
        }
      ],
      "payable": false,
      "stateMutability": "pure",
      "type": "function"
    },
    {
      "constant": true,
      "inputs": [],
      "name": "getNumberOfPlayers",
      "outputs": [
        {
          "internalType": "uint256",
          "name": "",
          "type": "uint256"
        }
      ],
      "payable": false,
      "stateMutability": "view",
      "type": "function"
    },
    {
      "constant": true,
      "inputs": [
        {
          "internalType": "uint256",
          "name": "index",
          "type": "uint256"
        }
      ],
      "name": "getPlayerByIndex",
      "outputs": [
        {
          "components": [
            {
              "internalType": "address",
              "name": "addr",
              "type": "address"
            },
            {
              "internalType": "string",
              "name": "name",
              "type": "string"
            },
            {
              "internalType": "int256",
              "name": "money",
              "type": "int256"
            },
            {
              "internalType": "uint8",
              "name": "position",
              "type": "uint8"
            },
            {
              "internalType": "uint8",
              "name": "movesInPrison",
              "type": "uint8"
            },
            {
              "internalType": "bool",
              "name": "canBuyStation",
              "type": "bool"
            }
          ],
          "internalType": "struct Monopoly.Player",
          "name": "",
          "type": "tuple"
        }
      ],
      "payable": false,
      "stateMutability": "view",
      "type": "function"
    },
    {
      "constant": true,
      "inputs": [
        {
          "internalType": "uint256",
          "name": "index",
          "type": "uint256"
        }
      ],
      "name": "getStationByIndex",
      "outputs": [
        {
          "components": [
            {
              "internalType": "enum Monopoly.StationCondition",
              "name": "condition",
              "type": "uint8"
            },
            {
              "internalType": "uint8",
              "name": "owner",
              "type": "uint8"
            }
          ],
          "internalType": "struct Monopoly.Station",
          "name": "",
          "type": "tuple"
        }
      ],
      "payable": false,
      "stateMutability": "view",
      "type": "function"
    },
    {
      "constant": true,
      "inputs": [
        {
          "internalType": "string",
          "name": "name",
          "type": "string"
        }
      ],
      "name": "getNumberOfPlayerByName",
      "outputs": [
        {
          "internalType": "int8",
          "name": "",
          "type": "int8"
        }
      ],
      "payable": false,
      "stateMutability": "view",
      "type": "function"
    },
    {
      "constant": true,
      "inputs": [],
      "name": "isGameActive",
      "outputs": [
        {
          "internalType": "bool",
          "name": "",
          "type": "bool"
        }
      ],
      "payable": false,
      "stateMutability": "view",
      "type": "function"
    },
    {
      "constant": true,
      "inputs": [],
      "name": "getWhoseMove",
      "outputs": [
        {
          "internalType": "string",
          "name": "name",
          "type": "string"
        }
      ],
      "payable": false,
      "stateMutability": "view",
      "type": "function"
    },
    {
      "constant": false,
      "inputs": [
        {
          "internalType": "string",
          "name": "name",
          "type": "string"
        }
      ],
      "name": "enroll",
      "outputs": [
        {
          "internalType": "bool",
          "name": "",
          "type": "bool"
        }
      ],
      "payable": false,
      "stateMutability": "nonpayable",
      "type": "function"
    },
    {
      "constant": false,
      "inputs": [],
      "name": "makeMove",
      "outputs": [
        {
          "internalType": "bool",
          "name": "",
          "type": "bool"
        }
      ],
      "payable": false,
      "stateMutability": "nonpayable",
      "type": "function"
    },
    {
      "constant": false,
      "inputs": [
        {
          "internalType": "bool",
          "name": "decision",
          "type": "bool"
        }
      ],
      "name": "buyStation",
      "outputs": [
        {
          "internalType": "bool",
          "name": "",
          "type": "bool"
        }
      ],
      "payable": false,
      "stateMutability": "nonpayable",
      "type": "function"
    }
  ],
  "bytecode": "0x608060405260008060006101000a81548160ff021916908360ff16021790555060008060016101000a81548160ff021916908360ff16021790555060008060026101000a81548160ff0219169083151502179055503480156200006157600080fd5b506001600260006001815260200190815260200160002060000160006101000a81548160ff021916908360028111156200009757fe5b02179055506001600260006002815260200190815260200160002060000160006101000a81548160ff02191690836002811115620000d157fe5b02179055506001600260006005815260200190815260200160002060000160006101000a81548160ff021916908360028111156200010b57fe5b02179055506001600260006007815260200190815260200160002060000160006101000a81548160ff021916908360028111156200014557fe5b02179055506001600260006008815260200190815260200160002060000160006101000a81548160ff021916908360028111156200017f57fe5b0217905550600160026000600b815260200190815260200160002060000160006101000a81548160ff02191690836002811115620001b957fe5b02179055506126ae80620001ce6000396000f3fe608060405234801561001057600080fd5b50600436106100a95760003560e01c806364bb514f1161007157806364bb514f1461015657806367b09cdb146101745780638f34de95146101a4578063f06e0731146101d4578063f48f0d8d14610204578063fd6673f514610234576100a9565b80630c0ef2b0146100ae578063387a6d6f146100cc5780633f44b8cf146100ea5780633f871fd414610108578063487e42c114610138575b600080fd5b6100b6610252565b6040516100c39190612196565b60405180910390f35b6100d4610268565b6040516100e19190612196565b60405180910390f35b6100f261063a565b6040516100ff91906121cc565b60405180910390f35b610122600480360361011d9190810190611ae5565b610701565b60405161012f9190612196565b60405180910390f35b610140610b11565b60405161014d9190612445565b60405180910390f35b61015e610b1d565b60405161016b9190612445565b60405180910390f35b61018e60048036036101899190810190611b0e565b610b29565b60405161019b9190612196565b60405180910390f35b6101be60048036036101b99190810190611b0e565b610ca6565b6040516101cb91906121b1565b60405180910390f35b6101ee60048036036101e99190810190611b4f565b610d39565b6040516101fb919061242a565b60405180910390f35b61021e60048036036102199190810190611b4f565b610db0565b60405161022b9190612408565b60405180910390f35b61023c610f34565b6040516102499190612445565b60405180910390f35b60008060029054906101000a900460ff16905090565b6000600160008060019054906101000a900460ff1660ff16815260200190815260200160002060000160009054906101000a900473ffffffffffffffffffffffffffffffffffffffff1673ffffffffffffffffffffffffffffffffffffffff163373ffffffffffffffffffffffffffffffffffffffff1614801561031e5750600160008060019054906101000a900460ff1660ff16815260200190815260200160002060030160029054906101000a900460ff16155b80156103365750600060029054906101000a900460ff165b15610632576000610345610f4d565b9050600060016006838161035557fe5b060190506000600160008060019054906101000a900460ff1660ff16815260200190815260200160002060030160019054906101000a900460ff1660ff1611156103f657600160008060019054906101000a900460ff1660ff168152602001908152602001600020600301600181819054906101000a900460ff16809291906001900391906101000a81548160ff021916908360ff1602179055505061047d565b600c60ff1681600160008060019054906101000a900460ff1660ff16815260200190815260200160002060030160009054906101000a900460ff160160ff168161043c57fe5b06600160008060019054906101000a900460ff1660ff16815260200190815260200160002060030160006101000a81548160ff021916908360ff1602179055505b600160008060019054906101000a900460ff1660ff1681526020019081526020016000206001016040516104b1919061215d565b60405180910390207f6434cf9d6bb70b45127d2f7b3852c98ba240d529f51ab5d63f95c10d9c52606c826040516104e89190612460565b60405180910390a26104f8610f6d565b6001600281111561050557fe5b60026000600160008060019054906101000a900460ff1660ff16815260200190815260200160002060030160009054906101000a900460ff1660ff16815260200190815260200160002060000160009054906101000a900460ff16600281111561056b57fe5b1480156105a0575060c8600160008060019054906101000a900460ff1660ff1681526020019081526020016000206002015412155b156105e95760018060008060019054906101000a900460ff1660ff16815260200190815260200160002060030160026101000a81548160ff021916908315150217905550610627565b600260ff166001600060019054906101000a900460ff160160ff168161060b57fe5b06600060016101000a81548160ff021916908360ff1602179055505b600192505050610637565b600090505b90565b6060600160008060019054906101000a900460ff1660ff1681526020019081526020016000206001018054600181600116156101000203166002900480601f0160208091040260200160405190810160405280929190818152602001828054600181600116156101000203166002900480156106f75780601f106106cc576101008083540402835291602001916106f7565b820191906000526020600020905b8154815290600101906020018083116106da57829003601f168201915b5050505050905090565b6000600160008060019054906101000a900460ff1660ff16815260200190815260200160002060000160009054906101000a900473ffffffffffffffffffffffffffffffffffffffff1673ffffffffffffffffffffffffffffffffffffffff163373ffffffffffffffffffffffffffffffffffffffff161480156107b65750600160008060019054906101000a900460ff1660ff16815260200190815260200160002060030160029054906101000a900460ff165b80156107ce5750600060029054906101000a900460ff165b15610b0757818015610808575060c8600160008060019054906101000a900460ff1660ff1681526020019081526020016000206002015412155b15610a81576002806000600160008060019054906101000a900460ff1660ff16815260200190815260200160002060030160009054906101000a900460ff1660ff16815260200190815260200160002060000160006101000a81548160ff0219169083600281111561087657fe5b0217905550600060019054906101000a900460ff1660026000600160008060019054906101000a900460ff1660ff16815260200190815260200160002060030160009054906101000a900460ff1660ff16815260200190815260200160002060000160016101000a81548160ff021916908360ff16021790555060c8600160008060019054906101000a900460ff1660ff1681526020019081526020016000206002015403600160008060019054906101000a900460ff1660ff16815260200190815260200160002060020181905550600160008060019054906101000a900460ff1660ff16815260200190815260200160002060010160405161097a919061215d565b60405180910390207fb2194612f0717427ddf97a50bf73448cc071c859adf94d3c347dae1f91d490b6600160008060019054906101000a900460ff1660ff16815260200190815260200160002060030160009054906101000a900460ff166040516109e59190612460565b60405180910390a27f0fa22c3cca6da304e13caca9d41e06d244b252514fd0199940b2714dcad391e4600160008060019054906101000a900460ff1660ff168152602001908152602001600020600101600160008060019054906101000a900460ff1660ff16815260200190815260200160002060030160009054906101000a900460ff16604051610a78929190612233565b60405180910390a15b6000600160008060019054906101000a900460ff1660ff16815260200190815260200160002060030160026101000a81548160ff021916908315150217905550600260ff166001600060019054906101000a900460ff160160ff1681610ae357fe5b06600060016101000a81548160ff021916908360ff16021790555060019050610b0c565b600090505b919050565b6000600c60ff16905090565b6000600260ff16905090565b6000600260ff166000809054906101000a900460ff1660ff16108015610b555750610b5333611862565b155b15610c9c5733600160008060009054906101000a900460ff1660ff16815260200190815260200160002060000160006101000a81548173ffffffffffffffffffffffffffffffffffffffff021916908373ffffffffffffffffffffffffffffffffffffffff16021790555060c8600160008060009054906101000a900460ff1660ff1681526020019081526020016000206002018190555081600160008060009054906101000a900460ff1660ff1681526020019081526020016000206001019080519060200190610c28929190611946565b5060008081819054906101000a900460ff168092919060010191906101000a81548160ff021916908360ff16021790555050600260ff166000809054906101000a900460ff1660ff161415610c93576001600060026101000a81548160ff0219169083151502179055505b60019050610ca1565b600090505b919050565b600080600090505b600260ff168160ff161015610d0f578280519060200120600160008360ff168152602001908152602001600020600101604051610ceb9190612146565b60405180910390201415610d025780915050610d34565b8080600101915050610cae565b507fffffffffffffffffffffffffffffffffffffffffffffffffffffffffffffffff90505b919050565b610d416119c6565b600260008381526020019081526020016000206040518060400160405290816000820160009054906101000a900460ff166002811115610d7d57fe5b6002811115610d8857fe5b81526020016000820160019054906101000a900460ff1660ff1660ff16815250509050919050565b610db86119ee565b600160008381526020019081526020016000206040518060c00160405290816000820160009054906101000a900473ffffffffffffffffffffffffffffffffffffffff1673ffffffffffffffffffffffffffffffffffffffff1673ffffffffffffffffffffffffffffffffffffffff168152602001600182018054600181600116156101000203166002900480601f016020809104026020016040519081016040528092919081815260200182805460018160011615610100020316600290048015610ec55780601f10610e9a57610100808354040283529160200191610ec5565b820191906000526020600020905b815481529060010190602001808311610ea857829003601f168201915b50505050508152602001600282015481526020016003820160009054906101000a900460ff1660ff1660ff1681526020016003820160019054906101000a900460ff1660ff1660ff1681526020016003820160029054906101000a900460ff1615151515815250509050919050565b60008060009054906101000a900460ff1660ff16905090565b60006060610f5a42611902565b9050808051906020012060001c91505090565b6009600160008060019054906101000a900460ff1660ff16815260200190815260200160002060030160009054906101000a900460ff1660ff1614156110c3577f0fa22c3cca6da304e13caca9d41e06d244b252514fd0199940b2714dcad391e4600160008060019054906101000a900460ff1660ff168152602001908152602001600020600101600160008060019054906101000a900460ff1660ff16815260200190815260200160002060030160009054906101000a900460ff166040516110389291906122b9565b60405180910390a16003600160008060019054906101000a900460ff1660ff16815260200190815260200160002060030160006101000a81548160ff021916908360ff1602179055506003600160008060019054906101000a900460ff1660ff16815260200190815260200160002060030160016101000a81548160ff021916908360ff1602179055505b6000600160008060019054906101000a900460ff1660ff16815260200190815260200160002060030160009054906101000a900460ff1660ff1614156111cd5760c8600160008060019054906101000a900460ff1660ff168152602001908152602001600020600201600082825401925050819055507f0fa22c3cca6da304e13caca9d41e06d244b252514fd0199940b2714dcad391e4600160008060019054906101000a900460ff1660ff168152602001908152602001600020600101600160008060019054906101000a900460ff1660ff16815260200190815260200160002060030160009054906101000a900460ff166040516111c492919061233f565b60405180910390a15b6004600160008060019054906101000a900460ff1660ff16815260200190815260200160002060030160009054906101000a900460ff1660ff1614156112d7576064600160008060019054906101000a900460ff1660ff168152602001908152602001600020600201600082825403925050819055507f0fa22c3cca6da304e13caca9d41e06d244b252514fd0199940b2714dcad391e4600160008060019054906101000a900460ff1660ff168152602001908152602001600020600101600160008060019054906101000a900460ff1660ff16815260200190815260200160002060030160009054906101000a900460ff166040516112ce929190612382565b60405180910390a15b600a600160008060019054906101000a900460ff1660ff16815260200190815260200160002060030160009054906101000a900460ff1660ff161415611588576000611321610f4d565b9050600060036006838161133157fe5b048161133957fe5b06905060008160ff161415611416576064600160008060019054906101000a900460ff1660ff168152602001908152602001600020600201600082825403925050819055507f0fa22c3cca6da304e13caca9d41e06d244b252514fd0199940b2714dcad391e4600160008060019054906101000a900460ff1660ff168152602001908152602001600020600101600160008060019054906101000a900460ff1660ff16815260200190815260200160002060030160009054906101000a900460ff166040516114099291906123c5565b60405180910390a1611585565b60018160ff1614156114f0576064600160008060019054906101000a900460ff1660ff168152602001908152602001600020600201600082825401925050819055507f0fa22c3cca6da304e13caca9d41e06d244b252514fd0199940b2714dcad391e4600160008060019054906101000a900460ff1660ff168152602001908152602001600020600101600160008060019054906101000a900460ff1660ff16815260200190815260200160002060030160009054906101000a900460ff166040516114e39291906122fc565b60405180910390a1611584565b7f0fa22c3cca6da304e13caca9d41e06d244b252514fd0199940b2714dcad391e4600160008060019054906101000a900460ff1660ff168152602001908152602001600020600101600160008060019054906101000a900460ff1660ff16815260200190815260200160002060030160009054906101000a900460ff1660405161157b929190612276565b60405180910390a15b5b50505b60028081111561159457fe5b60026000600160008060019054906101000a900460ff1660ff16815260200190815260200160002060030160009054906101000a900460ff1660ff16815260200190815260200160002060000160009054906101000a900460ff1660028111156115fa57fe5b1480156116765750600060019054906101000a900460ff1660ff1660026000600160008060019054906101000a900460ff1660ff16815260200190815260200160002060030160009054906101000a900460ff1660ff16815260200190815260200160002060000160019054906101000a900460ff1660ff1614155b15611860576032600160008060019054906101000a900460ff1660ff1681526020019081526020016000206002016000828254039250508190555060326001600060026000600160008060019054906101000a900460ff1660ff16815260200190815260200160002060030160009054906101000a900460ff1660ff16815260200190815260200160002060000160019054906101000a900460ff1660ff1681526020019081526020016000206002016000828254019250508190555060606001600060026000600160008060019054906101000a900460ff1660ff16815260200190815260200160002060030160009054906101000a900460ff1660ff16815260200190815260200160002060000160019054906101000a900460ff1660ff1681526020019081526020016000206001016040516020016117b89190612174565b60405160208183030381529060405290507f0fa22c3cca6da304e13caca9d41e06d244b252514fd0199940b2714dcad391e4600160008060019054906101000a900460ff1660ff168152602001908152602001600020600101600160008060019054906101000a900460ff1660ff16815260200190815260200160002060030160009054906101000a900460ff1683604051611856939291906121ee565b60405180910390a1505b565b600080600090505b600260ff168110156118f7578273ffffffffffffffffffffffffffffffffffffffff166001600083815260200190815260200160002060000160009054906101000a900473ffffffffffffffffffffffffffffffffffffffff1673ffffffffffffffffffffffffffffffffffffffff1614156118ea5760019150506118fd565b808060010191505061186a565b50600090505b919050565b606060206040519080825280601f01601f1916602001820160405280156119385781602001600182028038833980820191505090505b509050816020820152919050565b828054600181600116156101000203166002900490600052602060002090601f016020900481019282601f1061198757805160ff19168380011785556119b5565b828001600101855582156119b5579182015b828111156119b4578251825591602001919060010190611999565b5b5090506119c29190611a42565b5090565b6040518060400160405280600060028111156119de57fe5b8152602001600060ff1681525090565b6040518060c00160405280600073ffffffffffffffffffffffffffffffffffffffff1681526020016060815260200160008152602001600060ff168152602001600060ff1681526020016000151581525090565b611a6491905b80821115611a60576000816000905550600101611a48565b5090565b90565b600081359050611a768161263d565b92915050565b600082601f830112611a8d57600080fd5b8135611aa0611a9b826124a8565b61247b565b91508082526020830160208301858383011115611abc57600080fd5b611ac78382846125dd565b50505092915050565b600081359050611adf81612654565b92915050565b600060208284031215611af757600080fd5b6000611b0584828501611a67565b91505092915050565b600060208284031215611b2057600080fd5b600082013567ffffffffffffffff811115611b3a57600080fd5b611b4684828501611a7c565b91505092915050565b600060208284031215611b6157600080fd5b6000611b6f84828501611ad0565b91505092915050565b611b818161254c565b82525050565b611b908161255e565b82525050565b611b9f8161255e565b82525050565b600081546001811660008114611bc25760018114611be757611c2b565b607f6002830416611bd38187612514565b955060ff1983168652808601935050611c2b565b60028204611bf58187612514565b9550611c00856124d4565b60005b82811015611c2257815481890152600182019150602081019050611c03565b82880195505050505b505092915050565b611c3c816125cb565b82525050565b611c4b8161257d565b82525050565b611c5a81612587565b82525050565b6000611c6b82612509565b611c758185612530565b9350611c858185602086016125ec565b611c8e8161261f565b840191505092915050565b6000611ca4826124fe565b611cae818561251f565b9350611cbe8185602086016125ec565b611cc78161261f565b840191505092915050565b600081546001811660008114611cef5760018114611d1557611d59565b607f6002830416611d008187612530565b955060ff198316865260208601935050611d59565b60028204611d238187612530565b9550611d2e856124e9565b60005b82811015611d5057815481890152600182019150602081019050611d31565b80880195505050505b505092915050565b600081546001811660008114611d7e5760018114611da357611de7565b607f6002830416611d8f8187612541565b955060ff1983168652808601935050611de7565b60028204611db18187612541565b9550611dbc856124e9565b60005b82811015611dde57815481890152600182019150602081019050611dbf565b82880195505050505b505092915050565b6000611dfc601183612530565b91507f53746174696f6e20697320626f756768740000000000000000000000000000006000830152602082019050919050565b6000611e3c602483612530565b91507f4368616e63652073746174696f6e2c20746861742074696d6520646f206e6f7460008301527f68696e67000000000000000000000000000000000000000000000000000000006020830152604082019050919050565b6000611ea2601283612530565b91507f476f20746f206a61696c2073746174696f6e00000000000000000000000000006000830152602082019050919050565b6000611ee2602283612530565b91507f4368616e63652073746174696f6e2c20746861742074696d652067657420313060008301527f30240000000000000000000000000000000000000000000000000000000000006020830152604082019050919050565b6000611f48601483612530565b91507f474f2073746174696f6e2c2067657420323030240000000000000000000000006000830152602082019050919050565b6000611f88601c83612530565b91507f4c7578757279207461782073746174696f6e2c207061792031303024000000006000830152602082019050919050565b6000611fc8601983612541565b91507f546f6c6c2073746174696f6e2c207061792035302420746f20000000000000006000830152601982019050919050565b6000612008602283612530565b91507f4368616e63652073746174696f6e2c20746861742074696d652070617920313060008301527f30240000000000000000000000000000000000000000000000000000000000006020830152604082019050919050565b600060c0830160008301516120796000860182611b78565b50602083015184820360208601526120918282611c99565b91505060408301516120a66040860182611c42565b5060608301516120b96060860182612128565b5060808301516120cc6080860182612128565b5060a08301516120df60a0860182611b87565b508091505092915050565b6040820160008201516121006000850182611c33565b5060208201516121136020850182612128565b50505050565b612122816125b4565b82525050565b612131816125be565b82525050565b612140816125be565b82525050565b60006121528284611ba5565b915081905092915050565b60006121698284611d61565b915081905092915050565b600061217f82611fbb565b915061218b8284611d61565b915081905092915050565b60006020820190506121ab6000830184611b96565b92915050565b60006020820190506121c66000830184611c51565b92915050565b600060208201905081810360008301526121e68184611c60565b905092915050565b600060608201905081810360008301526122088186611cd2565b90506122176020830185612137565b81810360408301526122298184611c60565b9050949350505050565b6000606082019050818103600083015261224d8185611cd2565b905061225c6020830184612137565b818103604083015261226d81611def565b90509392505050565b600060608201905081810360008301526122908185611cd2565b905061229f6020830184612137565b81810360408301526122b081611e2f565b90509392505050565b600060608201905081810360008301526122d38185611cd2565b90506122e26020830184612137565b81810360408301526122f381611e95565b90509392505050565b600060608201905081810360008301526123168185611cd2565b90506123256020830184612137565b818103604083015261233681611ed5565b90509392505050565b600060608201905081810360008301526123598185611cd2565b90506123686020830184612137565b818103604083015261237981611f3b565b90509392505050565b6000606082019050818103600083015261239c8185611cd2565b90506123ab6020830184612137565b81810360408301526123bc81611f7b565b90509392505050565b600060608201905081810360008301526123df8185611cd2565b90506123ee6020830184612137565b81810360408301526123ff81611ffb565b90509392505050565b600060208201905081810360008301526124228184612061565b905092915050565b600060408201905061243f60008301846120ea565b92915050565b600060208201905061245a6000830184612119565b92915050565b60006020820190506124756000830184612137565b92915050565b6000604051905081810181811067ffffffffffffffff8211171561249e57600080fd5b8060405250919050565b600067ffffffffffffffff8211156124bf57600080fd5b601f19601f8301169050602081019050919050565b60008190508160005260206000209050919050565b60008190508160005260206000209050919050565b600081519050919050565b600081519050919050565b600081905092915050565b600082825260208201905092915050565b600082825260208201905092915050565b600081905092915050565b600061255782612594565b9050919050565b60008115159050919050565b600081905061257882612630565b919050565b6000819050919050565b60008160000b9050919050565b600073ffffffffffffffffffffffffffffffffffffffff82169050919050565b6000819050919050565b600060ff82169050919050565b60006125d68261256a565b9050919050565b82818337600083830152505050565b60005b8381101561260a5780820151818401526020810190506125ef565b83811115612619576000848401525b50505050565b6000601f19601f8301169050919050565b6003811061263a57fe5b50565b6126468161255e565b811461265157600080fd5b50565b61265d816125b4565b811461266857600080fd5b5056fea365627a7a723158200994213a5f9d38e43c9e857f041f2993742a9816127f47c045bde49fccd1052e6c6578706572696d656e74616cf564736f6c63430005100040",
  "source": "pragma solidity ^0.5.0;\npragma experimental ABIEncoderV2;\n\ncontract Monopoly\n{\n\tuint8 currentNumberOfPlayers = 0;\n\tuint8 constant maxNumberOfPlayers = 2;\n\tuint8 whoseMove = 0;\n\tbool gameIsActive = false; \n\tuint8 constant numberOfStations = 12;\n\n\tstruct Player\n\t{\n\t\taddress addr;\n\t\tstring name;\n\t\tint money;\n\t\tuint8 position;\n\t\tuint8 movesInPrison;\n\t\tbool canBuyStation;\n\t}\n\n\tenum StationCondition { None, Available, Bought }\n\tstruct Station\n\t{\n\t\tStationCondition condition;\n\t\tuint8 owner;\n\t}\n\n\tmapping (uint => Player) players;\n\tmapping (uint => Station) stations;\n\n\tconstructor() public\n\t{\n\t\t// stations corresponding to available stations\n\t\tstations[1].condition = StationCondition.Available;\n\t\tstations[2].condition = StationCondition.Available;\n\t\tstations[5].condition = StationCondition.Available;\n\t\tstations[7].condition = StationCondition.Available;\n\t\tstations[8].condition = StationCondition.Available;\n\t\tstations[11].condition = StationCondition.Available;\n\t}\n\n\t// ------------------------------------------ //\n\t// ---------| Public functions |------------- //\n\t// ------------------------------------------ //\n\n\t// ---------|  get functions   |------------- //\n\n\tfunction getMaxNumberOfPlayers() public pure returns (uint)\n\t{\n\t\treturn maxNumberOfPlayers;\n\t}\n\n\tfunction getNumberOfStations() public pure returns (uint)\n\t{\n\t\treturn numberOfStations;\n\t}\n\t\n\tfunction getNumberOfPlayers() public view returns (uint)\n\t{\n\t\treturn currentNumberOfPlayers;\n\t}\n\n\tfunction getPlayerByIndex(uint index) public view returns (Player memory)\n\t{\n\t\treturn players[index];\n\t}\n\n\tfunction getStationByIndex(uint index) public view returns (Station memory)\n\t{\n\t\treturn stations[index];\n\t}\n\n\t// return number in blockchain base to access your player\n\tfunction getNumberOfPlayerByName(string memory name) public view returns (int8)\n\t{\n\t\tfor (int8 i=0; uint8(i)<maxNumberOfPlayers; i++)\n\t\t{\n            if (keccak256(bytes(players[uint8(i)].name)) == keccak256(bytes(name)))\n\t\t\t{\n\t\t\t\treturn i;\n\t\t\t}\n\t\t}\n\n\t\treturn int8(-1);\n\t}\n\n\t// has the game already started but not finished yet\n\tfunction isGameActive() public view returns (bool)\n\t{\n\t\treturn gameIsActive;\n\t}\n\n\t// who can make move now? returns player's name\n\tfunction getWhoseMove() public view returns (string memory name)\n\t{\n\t\treturn players[whoseMove].name;\n\t}\n\n\t// ---------|  action functions   |------------- //\n\n\t// enroll the game to play, need to call to start the game\n\tfunction enroll(string memory name) public returns (bool)\n\t{\n\t\t// if there are free spaces and player is not yet in game\n\t\tif ((currentNumberOfPlayers < maxNumberOfPlayers) && (!isPlayer(msg.sender)))\n\t\t{\n\t\t\tplayers[currentNumberOfPlayers].addr = msg.sender;\n\t\t\tplayers[currentNumberOfPlayers].money = 200;\n\t\t\tplayers[currentNumberOfPlayers].name = name;\n\n\t\t\tcurrentNumberOfPlayers++;\n\n\t\t\tif (currentNumberOfPlayers == maxNumberOfPlayers)\n\t\t\t{\n\t\t\t\tgameIsActive = true;\n\t\t\t}\n\n\t\t\treturn true;\n\t\t}\n\t\telse\n\t\t{\n\t\t\treturn false;\n\t\t}\n\t}\n\n\t// make a move if it is ours\n\tfunction makeMove() public returns (bool)\n\t{\n\t\t// if user is appropriate\n\t\tif ((msg.sender == players[whoseMove].addr) && !players[whoseMove].canBuyStation && gameIsActive)\n\t\t{\n\t\t\t// generate random number for dice\n\t\t\tuint256 r = timestampHash();\n\t\t\tuint8 dice = uint8(r % 6 + 1);\n\n\t\t\t// handle case when player is in prison\n\t\t\tif (players[whoseMove].movesInPrison > 0)\n\t\t\t{\n\t\t\t\tplayers[whoseMove].movesInPrison--;\n\t\t\t}\n\t\t\telse\n\t\t\t{\n\t\t\t\tplayers[whoseMove].position = uint8((players[whoseMove].position + dice) % numberOfStations);\n\t\t\t}\n\n\t\t\t// emit event for returning dice value\n\t\t\temit moveIsMade(players[whoseMove].name, dice);\n\n\t\t\t// handle cases with stations\n\t\t\thandleStations();\n\n\t\t\t// if the station can be bought, return actionRequired=true \n\t\t\tif ((stations[players[whoseMove].position].condition == StationCondition.Available) && (players[whoseMove].money >= 200))\n\t\t\t{\n\t\t\t\tplayers[whoseMove].canBuyStation = true;\n\t\t\t}\n\t\t\t// otherwise pass the move\n\t\t\telse\n\t\t\t{\n\t\t\t\twhoseMove = ((whoseMove) + 1) % maxNumberOfPlayers;\n\t\t\t}\n\n\t\t\treturn true;\n\t\t}\n\t\telse\n\t\t{\n\t\t\treturn false;\n\t\t}\n\t}\n\n\t// buy station if now we can\n\tfunction buyStation(bool decision) public returns (bool)\n\t{\n\t\tif ((msg.sender == players[whoseMove].addr) && players[whoseMove].canBuyStation && gameIsActive)\n\t\t{\n\t\t\tif (decision && (players[whoseMove].money >= 200))\n\t\t\t{\n\t\t\t\tstations[players[whoseMove].position].condition = StationCondition.Bought;\n\t\t\t\tstations[players[whoseMove].position].owner = whoseMove;\n\n\t\t\t\tplayers[whoseMove].money = players[whoseMove].money - 200;\n\t\t\t\t\n\t\t\t\temit stationBought(players[whoseMove].name, players[whoseMove].position);\n\t\t\t\temit actionHappened(players[whoseMove].name, players[whoseMove].position, \"Station is bought\");\n\t\t\t}\n\t\t\n\t\t\tplayers[whoseMove].canBuyStation = false;\n\t\t\twhoseMove = ((whoseMove) + 1) % maxNumberOfPlayers;\n\n\t\t\treturn true;\n\t\t}\n\n\t\treturn false;\n\t}\n\n\t// ------------------------------------------ //\n\t// ---------|      Events       |------------ //\n\t// ------------------------------------------ //\n\n\t// event for returning dice value\n\tevent moveIsMade(string indexed name, uint8 dice);\n\n\t// event for writing log info about current action such as getting into prison and so on\n\tevent actionHappened(string name, uint8 position, string action);\n\n\t// event for writing log info about stations purchases\n\tevent stationBought(string indexed name, uint8 station);\n\n\t// ------------------------------------------ //\n\t// ---------| Private functions |------------ //\n\t// ------------------------------------------ //\n\n\t// handle different cases for stations\n\tfunction handleStations() private\n\t{\n\t\t// \"go to prison\" station\n\t\tif (players[whoseMove].position == 9)\n\t\t{\n\t\t\temit actionHappened(players[whoseMove].name, players[whoseMove].position, \"Go to jail station\");\n\n\t\t\tplayers[whoseMove].position = 3;\n\t\t\tplayers[whoseMove].movesInPrison = 3; // 3 more moves in prison\n\t\t}\n\n\t\t// go station, get 200$\n\t\tif (players[whoseMove].position == 0) // \"go\" station\n\t\t{\n\t\t\tplayers[whoseMove].money += 200;\n\t\t\temit actionHappened(players[whoseMove].name, players[whoseMove].position, \"GO station, get 200$\");\n\t\t}\n\n\t\t// luxury tax station, pay 100$\n\t\tif (players[whoseMove].position == 4) // \"luxury tax\" station\n\t\t{\n\t\t\tplayers[whoseMove].money -= 100;\n\t\t\temit actionHappened(players[whoseMove].name, players[whoseMove].position, \"Luxury tax station, pay 100$\");\n\t\t}\n\n\t\t// chanse station, either get 100$ or pay 100$ or do nothing\n\t\tif (players[whoseMove].position == 10) // \"chanse\" station\n\t\t{\n\t\t\t// generate random number for action in this case\n\t\t\tuint256 r = timestampHash();\n\t\t\tuint8 action = uint8((r / 6) % 3); // division by 6 for removing correlation with dice value\n\n\t\t\tif (action == 0)\n\t\t\t{\n\t\t\t\tplayers[whoseMove].money -= 100;\n\t\t\t\temit actionHappened(players[whoseMove].name, players[whoseMove].position, \"Chance station, that time pay 100$\");\n\t\t\t}\n\t\t\telse if (action == 1)\n\t\t\t{\n\t\t\t\tplayers[whoseMove].money += 100;\n\t\t\t\temit actionHappened(players[whoseMove].name, players[whoseMove].position, \"Chance station, that time get 100$\");\n\t\t\t}\n\t\t\telse\n\t\t\t{\n\t\t\t\temit actionHappened(players[whoseMove].name, players[whoseMove].position, \"Chance station, that time do nothing\");\n\t\t\t}\n\t\t}\n\t\n\t\t// not our station, pay 50$ to owner\n\t\tif ((stations[players[whoseMove].position].condition == StationCondition.Bought) && (stations[players[whoseMove].position].owner != whoseMove))\n\t\t{\n\t\t\tplayers[whoseMove].money -= 50;\n\t\t\tplayers[stations[players[whoseMove].position].owner].money += 50;\n\n\t\t\tstring memory message = string(abi.encodePacked(\"Toll station, pay 50$ to \", players[stations[players[whoseMove].position].owner].name));\n\t\t\temit actionHappened(players[whoseMove].name, players[whoseMove].position, message);\n\t\t}\n\t}\n\n\t// check has this address already signed up for the game\n\tfunction isPlayer(address player) private view returns (bool)\n\t{\n\t\tfor (uint i=0; i<maxNumberOfPlayers; i++)\n\t\t{\n\t\t\tif (players[i].addr == player)\n\t\t\t{\n\t\t\t\treturn true;\n\t\t\t}\n\t\t}\n\n\t\treturn false;\n\t}\n\n\t// get hash of timestamp of last block - can be considered as random()\n\tfunction timestampHash() private view returns (uint256)\n\t{\n\t\tbytes memory timestamp = toBytes(block.timestamp);\n\t\treturn uint256(keccak256(timestamp));\n\t}\n\n\t// convert to bytes\n\tfunction toBytes(uint256 x) private pure returns (bytes memory b)\n\t{\n\t\tb = new bytes(32);\n\t\tassembly { mstore(add(b, 32), x) }\n\t}\n}\n",
  "sourcePath": "/home/vlad/Work/Ethereum-Blockchain-Project-MIPT/contract/contracts/Monopoly.sol",
  "compiler": {
    "name": "solc",
    "version": "0.5.16+commit.9c3226ce.Emscripten.clang"
  },
  "schemaVersion": "3.3.1",
  "updatedAt": "2020-11-21T18:38:49.716Z",
  "devdoc": {
    "methods": {}
  },
  "userdoc": {
    "methods": {}
  }
}