{
  "contractName": "Monopoly",
  "abi": [
    {
      "inputs": [],
      "payable": false,
      "stateMutability": "nonpayable",
      "type": "constructor"
    },
    {
      "anonymous": false,
      "inputs": [
        {
          "indexed": false,
          "internalType": "string",
          "name": "name",
          "type": "string"
        },
        {
          "indexed": false,
          "internalType": "uint8",
          "name": "position",
          "type": "uint8"
        },
        {
          "indexed": false,
          "internalType": "string",
          "name": "action",
          "type": "string"
        }
      ],
      "name": "actionHappened",
      "type": "event"
    },
    {
      "anonymous": false,
      "inputs": [
        {
          "indexed": true,
          "internalType": "string",
          "name": "name",
          "type": "string"
        },
        {
          "indexed": false,
          "internalType": "uint8",
          "name": "dice",
          "type": "uint8"
        }
      ],
      "name": "moveIsMade",
      "type": "event"
    },
    {
      "anonymous": false,
      "inputs": [
        {
          "indexed": true,
          "internalType": "string",
          "name": "name",
          "type": "string"
        },
        {
          "indexed": false,
          "internalType": "uint8",
          "name": "station",
          "type": "uint8"
        }
      ],
      "name": "stationBought",
      "type": "event"
    },
    {
      "constant": true,
      "inputs": [],
      "name": "getMaxNumberOfPlayers",
      "outputs": [
        {
          "internalType": "uint256",
          "name": "",
          "type": "uint256"
        }
      ],
      "payable": false,
      "stateMutability": "pure",
      "type": "function"
    },
    {
      "constant": true,
      "inputs": [],
      "name": "getNumberOfStations",
      "outputs": [
        {
          "internalType": "uint256",
          "name": "",
          "type": "uint256"
        }
      ],
      "payable": false,
      "stateMutability": "pure",
      "type": "function"
    },
    {
      "constant": true,
      "inputs": [],
      "name": "getNumberOfPlayers",
      "outputs": [
        {
          "internalType": "uint256",
          "name": "",
          "type": "uint256"
        }
      ],
      "payable": false,
      "stateMutability": "view",
      "type": "function"
    },
    {
      "constant": true,
      "inputs": [
        {
          "internalType": "uint256",
          "name": "index",
          "type": "uint256"
        }
      ],
      "name": "getPlayerByIndex",
      "outputs": [
        {
          "components": [
            {
              "internalType": "address",
              "name": "addr",
              "type": "address"
            },
            {
              "internalType": "string",
              "name": "name",
              "type": "string"
            },
            {
              "internalType": "int256",
              "name": "money",
              "type": "int256"
            },
            {
              "internalType": "uint8",
              "name": "position",
              "type": "uint8"
            },
            {
              "internalType": "uint8",
              "name": "movesInPrison",
              "type": "uint8"
            },
            {
              "internalType": "bool",
              "name": "canBuyStation",
              "type": "bool"
            }
          ],
          "internalType": "struct Monopoly.Player",
          "name": "",
          "type": "tuple"
        }
      ],
      "payable": false,
      "stateMutability": "view",
      "type": "function"
    },
    {
      "constant": true,
      "inputs": [
        {
          "internalType": "uint256",
          "name": "index",
          "type": "uint256"
        }
      ],
      "name": "getStationByIndex",
      "outputs": [
        {
          "components": [
            {
              "internalType": "enum Monopoly.StationCondition",
              "name": "condition",
              "type": "uint8"
            },
            {
              "internalType": "uint8",
              "name": "owner",
              "type": "uint8"
            },
            {
              "internalType": "string",
              "name": "name",
              "type": "string"
            }
          ],
          "internalType": "struct Monopoly.Station",
          "name": "",
          "type": "tuple"
        }
      ],
      "payable": false,
      "stateMutability": "view",
      "type": "function"
    },
    {
      "constant": true,
      "inputs": [
        {
          "internalType": "string",
          "name": "name",
          "type": "string"
        }
      ],
      "name": "getNumberOfPlayerByName",
      "outputs": [
        {
          "internalType": "int8",
          "name": "",
          "type": "int8"
        }
      ],
      "payable": false,
      "stateMutability": "view",
      "type": "function"
    },
    {
      "constant": true,
      "inputs": [],
      "name": "isGameActive",
      "outputs": [
        {
          "internalType": "bool",
          "name": "",
          "type": "bool"
        }
      ],
      "payable": false,
      "stateMutability": "view",
      "type": "function"
    },
    {
      "constant": true,
      "inputs": [],
      "name": "getWhoseMove",
      "outputs": [
        {
          "internalType": "string",
          "name": "name",
          "type": "string"
        }
      ],
      "payable": false,
      "stateMutability": "view",
      "type": "function"
    },
    {
      "constant": false,
      "inputs": [
        {
          "internalType": "string",
          "name": "name",
          "type": "string"
        }
      ],
      "name": "enroll",
      "outputs": [
        {
          "internalType": "bool",
          "name": "",
          "type": "bool"
        }
      ],
      "payable": false,
      "stateMutability": "nonpayable",
      "type": "function"
    },
    {
      "constant": false,
      "inputs": [],
      "name": "makeMove",
      "outputs": [
        {
          "internalType": "bool",
          "name": "",
          "type": "bool"
        }
      ],
      "payable": false,
      "stateMutability": "nonpayable",
      "type": "function"
    },
    {
      "constant": false,
      "inputs": [
        {
          "internalType": "bool",
          "name": "decision",
          "type": "bool"
        }
      ],
      "name": "buyStation",
      "outputs": [
        {
          "internalType": "bool",
          "name": "",
          "type": "bool"
        }
      ],
      "payable": false,
      "stateMutability": "nonpayable",
      "type": "function"
    }
  ],
  "bytecode": "0x608060405260008060006101000a81548160ff021916908360ff16021790555060008060016101000a81548160ff021916908360ff16021790555060008060026101000a81548160ff0219169083151502179055503480156200006157600080fd5b506001600260006001815260200190815260200160002060000160006101000a81548160ff021916908360028111156200009757fe5b02179055506001600260006002815260200190815260200160002060000160006101000a81548160ff02191690836002811115620000d157fe5b02179055506001600260006005815260200190815260200160002060000160006101000a81548160ff021916908360028111156200010b57fe5b02179055506001600260006007815260200190815260200160002060000160006101000a81548160ff021916908360028111156200014557fe5b02179055506001600260006008815260200190815260200160002060000160006101000a81548160ff021916908360028111156200017f57fe5b0217905550600160026000600b815260200190815260200160002060000160006101000a81548160ff02191690836002811115620001b957fe5b02179055506040518060400160405280600881526020017f4176656e75652031000000000000000000000000000000000000000000000000815250600260006001815260200190815260200160002060010190805190602001906200022092919062000416565b506040518060400160405280600881526020017f4176656e75652032000000000000000000000000000000000000000000000000815250600260006002815260200190815260200160002060010190805190602001906200028392919062000416565b506040518060400160405280600881526020017f4176656e7565203300000000000000000000000000000000000000000000000081525060026000600581526020019081526020016000206001019080519060200190620002e692919062000416565b506040518060400160405280600881526020017f4176656e75652034000000000000000000000000000000000000000000000000815250600260006007815260200190815260200160002060010190805190602001906200034992919062000416565b506040518060400160405280600881526020017f4176656e7565203500000000000000000000000000000000000000000000000081525060026000600881526020019081526020016000206001019080519060200190620003ac92919062000416565b506040518060400160405280600881526020017f4176656e7565203600000000000000000000000000000000000000000000000081525060026000600b815260200190815260200160002060010190805190602001906200040f92919062000416565b50620004c5565b828054600181600116156101000203166002900490600052602060002090601f016020900481019282601f106200045957805160ff19168380011785556200048a565b828001600101855582156200048a579182015b82811115620004895782518255916020019190600101906200046c565b5b5090506200049991906200049d565b5090565b620004c291905b80821115620004be576000816000905550600101620004a4565b5090565b90565b61295780620004d56000396000f3fe608060405234801561001057600080fd5b50600436106100a95760003560e01c806364bb514f1161007157806364bb514f1461015657806367b09cdb146101745780638f34de95146101a4578063f06e0731146101d4578063f48f0d8d14610204578063fd6673f514610234576100a9565b80630c0ef2b0146100ae578063387a6d6f146100cc5780633f44b8cf146100ea5780633f871fd414610108578063487e42c114610138575b600080fd5b6100b6610252565b6040516100c39190612438565b60405180910390f35b6100d4610268565b6040516100e19190612438565b60405180910390f35b6100f261063a565b6040516100ff919061246e565b60405180910390f35b610122600480360361011d9190810190611cde565b610701565b60405161012f9190612438565b60405180910390f35b610140610b84565b60405161014d91906126ee565b60405180910390f35b61015e610b90565b60405161016b91906126ee565b60405180910390f35b61018e60048036036101899190810190611d07565b610b9c565b60405161019b9190612438565b60405180910390f35b6101be60048036036101b99190810190611d07565b610d19565b6040516101cb9190612453565b60405180910390f35b6101ee60048036036101e99190810190611d48565b610dac565b6040516101fb91906126cc565b60405180910390f35b61021e60048036036102199190810190611d48565b610ec5565b60405161022b91906126aa565b60405180910390f35b61023c611049565b60405161024991906126ee565b60405180910390f35b60008060029054906101000a900460ff16905090565b6000600160008060019054906101000a900460ff1660ff16815260200190815260200160002060000160009054906101000a900473ffffffffffffffffffffffffffffffffffffffff1673ffffffffffffffffffffffffffffffffffffffff163373ffffffffffffffffffffffffffffffffffffffff1614801561031e5750600160008060019054906101000a900460ff1660ff16815260200190815260200160002060030160029054906101000a900460ff16155b80156103365750600060029054906101000a900460ff165b15610632576000610345611062565b9050600060016006838161035557fe5b060190506000600160008060019054906101000a900460ff1660ff16815260200190815260200160002060030160019054906101000a900460ff1660ff1611156103f657600160008060019054906101000a900460ff1660ff168152602001908152602001600020600301600181819054906101000a900460ff16809291906001900391906101000a81548160ff021916908360ff1602179055505061047d565b600c60ff1681600160008060019054906101000a900460ff1660ff16815260200190815260200160002060030160009054906101000a900460ff160160ff168161043c57fe5b06600160008060019054906101000a900460ff1660ff16815260200190815260200160002060030160006101000a81548160ff021916908360ff1602179055505b600160008060019054906101000a900460ff1660ff1681526020019081526020016000206001016040516104b191906123dd565b60405180910390207f6434cf9d6bb70b45127d2f7b3852c98ba240d529f51ab5d63f95c10d9c52606c826040516104e89190612709565b60405180910390a26104f8611082565b6001600281111561050557fe5b60026000600160008060019054906101000a900460ff1660ff16815260200190815260200160002060030160009054906101000a900460ff1660ff16815260200190815260200160002060000160009054906101000a900460ff16600281111561056b57fe5b1480156105a0575060c8600160008060019054906101000a900460ff1660ff1681526020019081526020016000206002015412155b156105e95760018060008060019054906101000a900460ff1660ff16815260200190815260200160002060030160026101000a81548160ff021916908315150217905550610627565b600260ff166001600060019054906101000a900460ff160160ff168161060b57fe5b06600060016101000a81548160ff021916908360ff1602179055505b600192505050610637565b600090505b90565b6060600160008060019054906101000a900460ff1660ff1681526020019081526020016000206001018054600181600116156101000203166002900480601f0160208091040260200160405190810160405280929190818152602001828054600181600116156101000203166002900480156106f75780601f106106cc576101008083540402835291602001916106f7565b820191906000526020600020905b8154815290600101906020018083116106da57829003601f168201915b5050505050905090565b6000600160008060019054906101000a900460ff1660ff16815260200190815260200160002060000160009054906101000a900473ffffffffffffffffffffffffffffffffffffffff1673ffffffffffffffffffffffffffffffffffffffff163373ffffffffffffffffffffffffffffffffffffffff161480156107b65750600160008060019054906101000a900460ff1660ff16815260200190815260200160002060030160029054906101000a900460ff165b80156107ce5750600060029054906101000a900460ff165b15610b7a57818015610808575060c8600160008060019054906101000a900460ff1660ff1681526020019081526020016000206002015412155b15610af4576002806000600160008060019054906101000a900460ff1660ff16815260200190815260200160002060030160009054906101000a900460ff1660ff16815260200190815260200160002060000160006101000a81548160ff0219169083600281111561087657fe5b0217905550600060019054906101000a900460ff1660026000600160008060019054906101000a900460ff1660ff16815260200190815260200160002060030160009054906101000a900460ff1660ff16815260200190815260200160002060000160016101000a81548160ff021916908360ff16021790555060c8600160008060019054906101000a900460ff1660ff1681526020019081526020016000206002015403600160008060019054906101000a900460ff1660ff16815260200190815260200160002060020181905550600160008060019054906101000a900460ff1660ff16815260200190815260200160002060010160405161097a91906123dd565b60405180910390207fb2194612f0717427ddf97a50bf73448cc071c859adf94d3c347dae1f91d490b6600160008060019054906101000a900460ff1660ff16815260200190815260200160002060030160009054906101000a900460ff166040516109e59190612709565b60405180910390a2606060026000600160008060019054906101000a900460ff1660ff16815260200190815260200160002060030160009054906101000a900460ff1660ff168152602001908152602001600020600101604051602001610a4c91906123f4565b60405160208183030381529060405290507f0fa22c3cca6da304e13caca9d41e06d244b252514fd0199940b2714dcad391e4600160008060019054906101000a900460ff1660ff168152602001908152602001600020600101600160008060019054906101000a900460ff1660ff16815260200190815260200160002060030160009054906101000a900460ff1683604051610aea93929190612490565b60405180910390a1505b6000600160008060019054906101000a900460ff1660ff16815260200190815260200160002060030160026101000a81548160ff021916908315150217905550600260ff166001600060019054906101000a900460ff160160ff1681610b5657fe5b06600060016101000a81548160ff021916908360ff16021790555060019050610b7f565b600090505b919050565b6000600c60ff16905090565b6000600260ff16905090565b6000600260ff166000809054906101000a900460ff1660ff16108015610bc85750610bc633611a54565b155b15610d0f5733600160008060009054906101000a900460ff1660ff16815260200190815260200160002060000160006101000a81548173ffffffffffffffffffffffffffffffffffffffff021916908373ffffffffffffffffffffffffffffffffffffffff16021790555060c8600160008060009054906101000a900460ff1660ff1681526020019081526020016000206002018190555081600160008060009054906101000a900460ff1660ff1681526020019081526020016000206001019080519060200190610c9b929190611b38565b5060008081819054906101000a900460ff168092919060010191906101000a81548160ff021916908360ff16021790555050600260ff166000809054906101000a900460ff1660ff161415610d06576001600060026101000a81548160ff0219169083151502179055505b60019050610d14565b600090505b919050565b600080600090505b600260ff168160ff161015610d82578280519060200120600160008360ff168152602001908152602001600020600101604051610d5e91906123c6565b60405180910390201415610d755780915050610da7565b8080600101915050610d21565b507fffffffffffffffffffffffffffffffffffffffffffffffffffffffffffffffff90505b919050565b610db4611bb8565b600260008381526020019081526020016000206040518060600160405290816000820160009054906101000a900460ff166002811115610df057fe5b6002811115610dfb57fe5b81526020016000820160019054906101000a900460ff1660ff1660ff168152602001600182018054600181600116156101000203166002900480601f016020809104026020016040519081016040528092919081815260200182805460018160011615610100020316600290048015610eb55780601f10610e8a57610100808354040283529160200191610eb5565b820191906000526020600020905b815481529060010190602001808311610e9857829003601f168201915b5050505050815250509050919050565b610ecd611be7565b600160008381526020019081526020016000206040518060c00160405290816000820160009054906101000a900473ffffffffffffffffffffffffffffffffffffffff1673ffffffffffffffffffffffffffffffffffffffff1673ffffffffffffffffffffffffffffffffffffffff168152602001600182018054600181600116156101000203166002900480601f016020809104026020016040519081016040528092919081815260200182805460018160011615610100020316600290048015610fda5780601f10610faf57610100808354040283529160200191610fda565b820191906000526020600020905b815481529060010190602001808311610fbd57829003601f168201915b50505050508152602001600282015481526020016003820160009054906101000a900460ff1660ff1660ff1681526020016003820160019054906101000a900460ff1660ff1660ff1681526020016003820160029054906101000a900460ff1615151515815250509050919050565b60008060009054906101000a900460ff1660ff16905090565b6000606061106f42611af4565b9050808051906020012060001c91505090565b6009600160008060019054906101000a900460ff1660ff16815260200190815260200160002060030160009054906101000a900460ff1660ff1614156111d7577f0fa22c3cca6da304e13caca9d41e06d244b252514fd0199940b2714dcad391e4600160008060019054906101000a900460ff1660ff168152602001908152602001600020600101600160008060019054906101000a900460ff1660ff16815260200190815260200160002060030160009054906101000a900460ff1660405161114d9291906124d5565b60405180910390a16003600160008060019054906101000a900460ff1660ff16815260200190815260200160002060030160006101000a81548160ff021916908360ff16021790555060018060008060019054906101000a900460ff1660ff16815260200190815260200160002060030160016101000a81548160ff021916908360ff1602179055505b6000600160008060019054906101000a900460ff1660ff16815260200190815260200160002060030160009054906101000a900460ff1660ff1614156112e15760c8600160008060019054906101000a900460ff1660ff168152602001908152602001600020600201600082825401925050819055507f0fa22c3cca6da304e13caca9d41e06d244b252514fd0199940b2714dcad391e4600160008060019054906101000a900460ff1660ff168152602001908152602001600020600101600160008060019054906101000a900460ff1660ff16815260200190815260200160002060030160009054906101000a900460ff166040516112d8929190612624565b60405180910390a15b6004600160008060019054906101000a900460ff1660ff16815260200190815260200160002060030160009054906101000a900460ff1660ff1614156113eb576064600160008060019054906101000a900460ff1660ff168152602001908152602001600020600201600082825403925050819055507f0fa22c3cca6da304e13caca9d41e06d244b252514fd0199940b2714dcad391e4600160008060019054906101000a900460ff1660ff168152602001908152602001600020600101600160008060019054906101000a900460ff1660ff16815260200190815260200160002060030160009054906101000a900460ff166040516113e29291906125e1565b60405180910390a15b600a600160008060019054906101000a900460ff1660ff16815260200190815260200160002060030160009054906101000a900460ff1660ff16141561169c576000611435611062565b9050600060036006838161144557fe5b048161144d57fe5b06905060008160ff16141561152a576064600160008060019054906101000a900460ff1660ff168152602001908152602001600020600201600082825403925050819055507f0fa22c3cca6da304e13caca9d41e06d244b252514fd0199940b2714dcad391e4600160008060019054906101000a900460ff1660ff168152602001908152602001600020600101600160008060019054906101000a900460ff1660ff16815260200190815260200160002060030160009054906101000a900460ff1660405161151d929190612518565b60405180910390a1611699565b60018160ff161415611604576064600160008060019054906101000a900460ff1660ff168152602001908152602001600020600201600082825401925050819055507f0fa22c3cca6da304e13caca9d41e06d244b252514fd0199940b2714dcad391e4600160008060019054906101000a900460ff1660ff168152602001908152602001600020600101600160008060019054906101000a900460ff1660ff16815260200190815260200160002060030160009054906101000a900460ff166040516115f792919061259e565b60405180910390a1611698565b7f0fa22c3cca6da304e13caca9d41e06d244b252514fd0199940b2714dcad391e4600160008060019054906101000a900460ff1660ff168152602001908152602001600020600101600160008060019054906101000a900460ff1660ff16815260200190815260200160002060030160009054906101000a900460ff1660405161168f92919061255b565b60405180910390a15b5b50505b6002808111156116a857fe5b60026000600160008060019054906101000a900460ff1660ff16815260200190815260200160002060030160009054906101000a900460ff1660ff16815260200190815260200160002060000160009054906101000a900460ff16600281111561170e57fe5b14801561178a5750600060019054906101000a900460ff1660ff1660026000600160008060019054906101000a900460ff1660ff16815260200190815260200160002060030160009054906101000a900460ff1660ff16815260200190815260200160002060000160019054906101000a900460ff1660ff1614155b15611974576032600160008060019054906101000a900460ff1660ff1681526020019081526020016000206002016000828254039250508190555060326001600060026000600160008060019054906101000a900460ff1660ff16815260200190815260200160002060030160009054906101000a900460ff1660ff16815260200190815260200160002060000160019054906101000a900460ff1660ff1681526020019081526020016000206002016000828254019250508190555060606001600060026000600160008060019054906101000a900460ff1660ff16815260200190815260200160002060030160009054906101000a900460ff1660ff16815260200190815260200160002060000160019054906101000a900460ff1660ff1681526020019081526020016000206001016040516020016118cc9190612416565b60405160208183030381529060405290507f0fa22c3cca6da304e13caca9d41e06d244b252514fd0199940b2714dcad391e4600160008060019054906101000a900460ff1660ff168152602001908152602001600020600101600160008060019054906101000a900460ff1660ff16815260200190815260200160002060030160009054906101000a900460ff168360405161196a93929190612490565b60405180910390a1505b6000600160008060019054906101000a900460ff1660ff168152602001908152602001600020600201541215611a525760008060026101000a81548160ff0219169083151502179055507f0fa22c3cca6da304e13caca9d41e06d244b252514fd0199940b2714dcad391e4600160008060019054906101000a900460ff1660ff168152602001908152602001600020600101600160008060019054906101000a900460ff1660ff16815260200190815260200160002060030160009054906101000a900460ff16604051611a49929190612667565b60405180910390a15b565b600080600090505b600260ff16811015611ae9578273ffffffffffffffffffffffffffffffffffffffff166001600083815260200190815260200160002060000160009054906101000a900473ffffffffffffffffffffffffffffffffffffffff1673ffffffffffffffffffffffffffffffffffffffff161415611adc576001915050611aef565b8080600101915050611a5c565b50600090505b919050565b606060206040519080825280601f01601f191660200182016040528015611b2a5781602001600182028038833980820191505090505b509050816020820152919050565b828054600181600116156101000203166002900490600052602060002090601f016020900481019282601f10611b7957805160ff1916838001178555611ba7565b82800160010185558215611ba7579182015b82811115611ba6578251825591602001919060010190611b8b565b5b509050611bb49190611c3b565b5090565b604051806060016040528060006002811115611bd057fe5b8152602001600060ff168152602001606081525090565b6040518060c00160405280600073ffffffffffffffffffffffffffffffffffffffff1681526020016060815260200160008152602001600060ff168152602001600060ff1681526020016000151581525090565b611c5d91905b80821115611c59576000816000905550600101611c41565b5090565b90565b600081359050611c6f816128e6565b92915050565b600082601f830112611c8657600080fd5b8135611c99611c9482612751565b612724565b91508082526020830160208301858383011115611cb557600080fd5b611cc0838284612886565b50505092915050565b600081359050611cd8816128fd565b92915050565b600060208284031215611cf057600080fd5b6000611cfe84828501611c60565b91505092915050565b600060208284031215611d1957600080fd5b600082013567ffffffffffffffff811115611d3357600080fd5b611d3f84828501611c75565b91505092915050565b600060208284031215611d5a57600080fd5b6000611d6884828501611cc9565b91505092915050565b611d7a816127f5565b82525050565b611d8981612807565b82525050565b611d9881612807565b82525050565b600081546001811660008114611dbb5760018114611de057611e24565b607f6002830416611dcc81876127bd565b955060ff1983168652808601935050611e24565b60028204611dee81876127bd565b9550611df98561277d565b60005b82811015611e1b57815481890152600182019150602081019050611dfc565b82880195505050505b505092915050565b611e3581612874565b82525050565b611e4481612826565b82525050565b611e5381612830565b82525050565b6000611e64826127b2565b611e6e81856127d9565b9350611e7e818560208601612895565b611e87816128c8565b840191505092915050565b6000611e9d826127a7565b611ea781856127c8565b9350611eb7818560208601612895565b611ec0816128c8565b840191505092915050565b600081546001811660008114611ee85760018114611f0e57611f52565b607f6002830416611ef981876127d9565b955060ff198316865260208601935050611f52565b60028204611f1c81876127d9565b9550611f2785612792565b60005b82811015611f4957815481890152600182019150602081019050611f2a565b80880195505050505b505092915050565b600081546001811660008114611f775760018114611f9c57611fe0565b607f6002830416611f8881876127ea565b955060ff1983168652808601935050611fe0565b60028204611faa81876127ea565b9550611fb585612792565b60005b82811015611fd757815481890152600182019150602081019050611fb8565b82880195505050505b505092915050565b6000611ff56013836127d9565b91507f0a476f20746f206a61696c2073746174696f6e000000000000000000000000006000830152602082019050919050565b60006120356023836127d9565b91507f0a4368616e63652073746174696f6e2c20746861742074696d6520706179203160008301527f30302400000000000000000000000000000000000000000000000000000000006020830152604082019050919050565b600061209b6025836127d9565b91507f0a4368616e63652073746174696f6e2c20746861742074696d6520646f206e6f60008301527f7468696e670000000000000000000000000000000000000000000000000000006020830152604082019050919050565b60006121016023836127d9565b91507f0a4368616e63652073746174696f6e2c20746861742074696d6520676574203160008301527f30302400000000000000000000000000000000000000000000000000000000006020830152604082019050919050565b6000612167601a836127ea565b91507f0a546f6c6c2073746174696f6e2c207061792035302420746f200000000000006000830152601a82019050919050565b60006121a7601d836127d9565b91507f0a4c7578757279207461782073746174696f6e2c2070617920313030240000006000830152602082019050919050565b60006121e7600a836127ea565b91507f20697320626f75676874000000000000000000000000000000000000000000006000830152600a82019050919050565b60006122276015836127d9565b91507f0a474f2073746174696f6e2c20676574203230302400000000000000000000006000830152602082019050919050565b60006122676021836127d9565b91507f0a46696e6973686564206869732077617920286c6f6f6f6f682c2070692a6f7260008301527f29000000000000000000000000000000000000000000000000000000000000006020830152604082019050919050565b600060c0830160008301516122d86000860182611d71565b50602083015184820360208601526122f08282611e92565b91505060408301516123056040860182611e3b565b50606083015161231860608601826123a8565b50608083015161232b60808601826123a8565b5060a083015161233e60a0860182611d80565b508091505092915050565b60006060830160008301516123616000860182611e2c565b50602083015161237460208601826123a8565b506040830151848203604086015261238c8282611e92565b9150508091505092915050565b6123a28161285d565b82525050565b6123b181612867565b82525050565b6123c081612867565b82525050565b60006123d28284611d9e565b915081905092915050565b60006123e98284611f5a565b915081905092915050565b60006124008284611f5a565b915061240b826121da565b915081905092915050565b60006124218261215a565b915061242d8284611f5a565b915081905092915050565b600060208201905061244d6000830184611d8f565b92915050565b60006020820190506124686000830184611e4a565b92915050565b600060208201905081810360008301526124888184611e59565b905092915050565b600060608201905081810360008301526124aa8186611ecb565b90506124b960208301856123b7565b81810360408301526124cb8184611e59565b9050949350505050565b600060608201905081810360008301526124ef8185611ecb565b90506124fe60208301846123b7565b818103604083015261250f81611fe8565b90509392505050565b600060608201905081810360008301526125328185611ecb565b905061254160208301846123b7565b818103604083015261255281612028565b90509392505050565b600060608201905081810360008301526125758185611ecb565b905061258460208301846123b7565b81810360408301526125958161208e565b90509392505050565b600060608201905081810360008301526125b88185611ecb565b90506125c760208301846123b7565b81810360408301526125d8816120f4565b90509392505050565b600060608201905081810360008301526125fb8185611ecb565b905061260a60208301846123b7565b818103604083015261261b8161219a565b90509392505050565b6000606082019050818103600083015261263e8185611ecb565b905061264d60208301846123b7565b818103604083015261265e8161221a565b90509392505050565b600060608201905081810360008301526126818185611ecb565b905061269060208301846123b7565b81810360408301526126a18161225a565b90509392505050565b600060208201905081810360008301526126c481846122c0565b905092915050565b600060208201905081810360008301526126e68184612349565b905092915050565b60006020820190506127036000830184612399565b92915050565b600060208201905061271e60008301846123b7565b92915050565b6000604051905081810181811067ffffffffffffffff8211171561274757600080fd5b8060405250919050565b600067ffffffffffffffff82111561276857600080fd5b601f19601f8301169050602081019050919050565b60008190508160005260206000209050919050565b60008190508160005260206000209050919050565b600081519050919050565b600081519050919050565b600081905092915050565b600082825260208201905092915050565b600082825260208201905092915050565b600081905092915050565b60006128008261283d565b9050919050565b60008115159050919050565b6000819050612821826128d9565b919050565b6000819050919050565b60008160000b9050919050565b600073ffffffffffffffffffffffffffffffffffffffff82169050919050565b6000819050919050565b600060ff82169050919050565b600061287f82612813565b9050919050565b82818337600083830152505050565b60005b838110156128b3578082015181840152602081019050612898565b838111156128c2576000848401525b50505050565b6000601f19601f8301169050919050565b600381106128e357fe5b50565b6128ef81612807565b81146128fa57600080fd5b50565b6129068161285d565b811461291157600080fd5b5056fea365627a7a723158205817123ad57fa0df23ec2d380382be27a17a3b32c983e76adf71279b3923170a6c6578706572696d656e74616cf564736f6c63430005100040",
  "source": "pragma solidity ^0.5.0;\npragma experimental ABIEncoderV2;\n\ncontract Monopoly\n{\n\tuint8 currentNumberOfPlayers = 0;\n\tuint8 constant maxNumberOfPlayers = 2;\n\tuint8 whoseMove = 0;\n\tbool gameIsActive = false; \n\tuint8 constant numberOfStations = 12;\n\n\tstruct Player\n\t{\n\t\taddress addr;\n\t\tstring name;\n\t\tint money;\n\t\tuint8 position;\n\t\tuint8 movesInPrison;\n\t\tbool canBuyStation;\n\t}\n\n\tenum StationCondition { None, Available, Bought }\n\tstruct Station\n\t{\n\t\tStationCondition condition;\n\t\tuint8 owner;\n        string name;\n\t}\n\n\tmapping (uint => Player) players;\n\tmapping (uint => Station) stations;\n\n\tconstructor() public\n\t{\n\t\t// stations corresponding to available stations\n\t\tstations[1].condition = StationCondition.Available;\n\t\tstations[2].condition = StationCondition.Available;\n\t\tstations[5].condition = StationCondition.Available;\n\t\tstations[7].condition = StationCondition.Available;\n\t\tstations[8].condition = StationCondition.Available;\n\t\tstations[11].condition = StationCondition.Available;\n\n\t\tstations[1].name = \"Avenue 1\";\n\t\tstations[2].name = \"Avenue 2\";\n\t\tstations[5].name = \"Avenue 3\";\n\t\tstations[7].name = \"Avenue 4\";\n\t\tstations[8].name = \"Avenue 5\";\n\t\tstations[11].name = \"Avenue 6\";\n\t}\n\n\t// ------------------------------------------ //\n\t// ---------| Public functions |------------- //\n\t// ------------------------------------------ //\n\n\t// ---------|  get functions   |------------- //\n\n\tfunction getMaxNumberOfPlayers() public pure returns (uint)\n\t{\n\t\treturn maxNumberOfPlayers;\n\t}\n\n\tfunction getNumberOfStations() public pure returns (uint)\n\t{\n\t\treturn numberOfStations;\n\t}\n\t\n\tfunction getNumberOfPlayers() public view returns (uint)\n\t{\n\t\treturn currentNumberOfPlayers;\n\t}\n\n\tfunction getPlayerByIndex(uint index) public view returns (Player memory)\n\t{\n\t\treturn players[index];\n\t}\n\n\tfunction getStationByIndex(uint index) public view returns (Station memory)\n\t{\n\t\treturn stations[index];\n\t}\n\n\t// return number in blockchain base to access your player\n\tfunction getNumberOfPlayerByName(string memory name) public view returns (int8)\n\t{\n\t\tfor (int8 i=0; uint8(i)<maxNumberOfPlayers; i++)\n\t\t{\n            if (keccak256(bytes(players[uint8(i)].name)) == keccak256(bytes(name)))\n\t\t\t{\n\t\t\t\treturn i;\n\t\t\t}\n\t\t}\n\n\t\treturn int8(-1);\n\t}\n\n\t// has the game already started but not finished yet\n\tfunction isGameActive() public view returns (bool)\n\t{\n\t\treturn gameIsActive;\n\t}\n\n\t// who can make move now? returns player's name\n\tfunction getWhoseMove() public view returns (string memory name)\n\t{\n\t\treturn players[whoseMove].name;\n\t}\n\n\t// ---------|  action functions   |------------- //\n\n\t// enroll the game to play, need to call to start the game\n\tfunction enroll(string memory name) public returns (bool)\n\t{\n\t\t// if there are free spaces and player is not yet in game\n\t\tif ((currentNumberOfPlayers < maxNumberOfPlayers) && (!isPlayer(msg.sender)))\n\t\t{\n\t\t\tplayers[currentNumberOfPlayers].addr = msg.sender;\n\t\t\tplayers[currentNumberOfPlayers].money = 200;\n\t\t\tplayers[currentNumberOfPlayers].name = name;\n\n\t\t\tcurrentNumberOfPlayers++;\n\n\t\t\tif (currentNumberOfPlayers == maxNumberOfPlayers)\n\t\t\t{\n\t\t\t\tgameIsActive = true;\n\t\t\t}\n\n\t\t\treturn true;\n\t\t}\n\t\telse\n\t\t{\n\t\t\treturn false;\n\t\t}\n\t}\n\n\t// make a move if it is ours\n\tfunction makeMove() public returns (bool)\n\t{\n\t\t// if user is appropriate\n\t\tif ((msg.sender == players[whoseMove].addr) && !players[whoseMove].canBuyStation && gameIsActive)\n\t\t{\n\t\t\t// generate random number for dice\n\t\t\tuint256 r = timestampHash();\n\t\t\tuint8 dice = uint8(r % 6 + 1);\n\n\t\t\t// handle case when player is in prison\n\t\t\tif (players[whoseMove].movesInPrison > 0)\n\t\t\t{\n\t\t\t\tplayers[whoseMove].movesInPrison--;\n\t\t\t}\n\t\t\telse\n\t\t\t{\n\t\t\t\tplayers[whoseMove].position = uint8((players[whoseMove].position + dice) % numberOfStations);\n\t\t\t}\n\n\t\t\t// emit event for returning dice value\n\t\t\temit moveIsMade(players[whoseMove].name, dice);\n\n\t\t\t// handle cases with stations\n\t\t\thandleStations();\n\n\t\t\t// if the station can be bought, return actionRequired=true \n\t\t\tif ((stations[players[whoseMove].position].condition == StationCondition.Available) && (players[whoseMove].money >= 200))\n\t\t\t{\n\t\t\t\tplayers[whoseMove].canBuyStation = true;\n\t\t\t}\n\t\t\t// otherwise pass the move\n\t\t\telse\n\t\t\t{\n\t\t\t\twhoseMove = ((whoseMove) + 1) % maxNumberOfPlayers;\n\t\t\t}\n\n\t\t\treturn true;\n\t\t}\n\t\telse\n\t\t{\n\t\t\treturn false;\n\t\t}\n\t}\n\n\t// buy station if now we can\n\tfunction buyStation(bool decision) public returns (bool)\n\t{\n\t\tif ((msg.sender == players[whoseMove].addr) && players[whoseMove].canBuyStation && gameIsActive)\n\t\t{\n\t\t\tif (decision && (players[whoseMove].money >= 200))\n\t\t\t{\n\t\t\t\tstations[players[whoseMove].position].condition = StationCondition.Bought;\n\t\t\t\tstations[players[whoseMove].position].owner = whoseMove;\n\n\t\t\t\tplayers[whoseMove].money = players[whoseMove].money - 200;\n\t\t\t\t\n\t\t\t\temit stationBought(players[whoseMove].name, players[whoseMove].position);\n\n\t\t\t    string memory message = string(abi.encodePacked(stations[players[whoseMove].position].name, \" is bought\"));\n\t\t\t\temit actionHappened(players[whoseMove].name, players[whoseMove].position, message);\n\t\t\t}\n\t\t\n\t\t\tplayers[whoseMove].canBuyStation = false;\n\t\t\twhoseMove = ((whoseMove) + 1) % maxNumberOfPlayers;\n\n\t\t\treturn true;\n\t\t}\n\n\t\treturn false;\n\t}\n\n\t// ------------------------------------------ //\n\t// ---------|      Events       |------------ //\n\t// ------------------------------------------ //\n\n\t// event for returning dice value\n\tevent moveIsMade(string indexed name, uint8 dice);\n\n\t// event for writing log info about current action such as getting into prison and so on\n\tevent actionHappened(string name, uint8 position, string action);\n\n\t// event for writing log info about stations purchases\n\tevent stationBought(string indexed name, uint8 station);\n\n\t// ------------------------------------------ //\n\t// ---------| Private functions |------------ //\n\t// ------------------------------------------ //\n\n\t// handle different cases for stations\n\tfunction handleStations() private\n\t{\n\t\t// \"go to prison\" station\n\t\tif (players[whoseMove].position == 9)\n\t\t{\n\t\t\temit actionHappened(players[whoseMove].name, players[whoseMove].position, \"\\nGo to jail station\");\n\n\t\t\tplayers[whoseMove].position = 3;\n\t\t\tplayers[whoseMove].movesInPrison = 1; // next move is in prison\n\t\t}\n\n\t\t// go station, get 200$\n\t\tif (players[whoseMove].position == 0) // \"go\" station\n\t\t{\n\t\t\tplayers[whoseMove].money += 200;\n\t\t\temit actionHappened(players[whoseMove].name, players[whoseMove].position, \"\\nGO station, get 200$\");\n\t\t}\n\n\t\t// luxury tax station, pay 100$\n\t\tif (players[whoseMove].position == 4) // \"luxury tax\" station\n\t\t{\n\t\t\tplayers[whoseMove].money -= 100;\n\t\t\temit actionHappened(players[whoseMove].name, players[whoseMove].position, \"\\nLuxury tax station, pay 100$\");\n\t\t}\n\n\t\t// chanse station, either get 100$ or pay 100$ or do nothing\n\t\tif (players[whoseMove].position == 10) // \"chanse\" station\n\t\t{\n\t\t\t// generate random number for action in this case\n\t\t\tuint256 r = timestampHash();\n\t\t\tuint8 action = uint8((r / 6) % 3); // division by 6 for removing correlation with dice value\n\n\t\t\tif (action == 0)\n\t\t\t{\n\t\t\t\tplayers[whoseMove].money -= 100;\n\t\t\t\temit actionHappened(players[whoseMove].name, players[whoseMove].position, \"\\nChance station, that time pay 100$\");\n\t\t\t}\n\t\t\telse if (action == 1)\n\t\t\t{\n\t\t\t\tplayers[whoseMove].money += 100;\n\t\t\t\temit actionHappened(players[whoseMove].name, players[whoseMove].position, \"\\nChance station, that time get 100$\");\n\t\t\t}\n\t\t\telse\n\t\t\t{\n\t\t\t\temit actionHappened(players[whoseMove].name, players[whoseMove].position, \"\\nChance station, that time do nothing\");\n\t\t\t}\n\t\t}\n\t\n\t\t// not our station, pay 50$ to owner\n\t\tif ((stations[players[whoseMove].position].condition == StationCondition.Bought) && (stations[players[whoseMove].position].owner != whoseMove))\n\t\t{\n\t\t\tplayers[whoseMove].money -= 50;\n\t\t\tplayers[stations[players[whoseMove].position].owner].money += 50;\n\n\t\t\tstring memory message = string(abi.encodePacked(\"\\nToll station, pay 50$ to \", players[stations[players[whoseMove].position].owner].name));\n\t\t\temit actionHappened(players[whoseMove].name, players[whoseMove].position, message);\n\t\t}\n\n        if (players[whoseMove].money < 0)\n        {\n            gameIsActive = false;\n            emit actionHappened(players[whoseMove].name, players[whoseMove].position, \"\\nFinished his way (looooh, pi*or)\");\n        }\n\t}\n\n\t// check has this address already signed up for the game\n\tfunction isPlayer(address player) private view returns (bool)\n\t{\n\t\tfor (uint i=0; i<maxNumberOfPlayers; i++)\n\t\t{\n\t\t\tif (players[i].addr == player)\n\t\t\t{\n\t\t\t\treturn true;\n\t\t\t}\n\t\t}\n\n\t\treturn false;\n\t}\n\n\t// get hash of timestamp of last block - can be considered as random()\n\tfunction timestampHash() private view returns (uint256)\n\t{\n\t\tbytes memory timestamp = toBytes(block.timestamp);\n\t\treturn uint256(keccak256(timestamp));\n\t}\n\n\t// convert to bytes\n\tfunction toBytes(uint256 x) private pure returns (bytes memory b)\n\t{\n\t\tb = new bytes(32);\n\t\tassembly { mstore(add(b, 32), x) }\n\t}\n}\n",
  "sourcePath": "/home/vlad/Work/Ethereum-Blockchain-Project-MIPT/contract/contracts/Monopoly.sol",
  "compiler": {
    "name": "solc",
    "version": "0.5.16+commit.9c3226ce.Emscripten.clang"
  },
  "schemaVersion": "3.3.1",
  "updatedAt": "2020-11-22T09:51:16.363Z",
  "devdoc": {
    "methods": {}
  },
  "userdoc": {
    "methods": {}
  }
}