{
  "contractName": "Monopoly",
  "abi": [
    {
      "inputs": [],
      "payable": false,
      "stateMutability": "nonpayable",
      "type": "constructor"
    },
    {
      "anonymous": false,
      "inputs": [
        {
          "indexed": false,
          "internalType": "string",
          "name": "name",
          "type": "string"
        },
        {
          "indexed": false,
          "internalType": "uint8",
          "name": "position",
          "type": "uint8"
        },
        {
          "indexed": false,
          "internalType": "string",
          "name": "action",
          "type": "string"
        }
      ],
      "name": "actionHappened",
      "type": "event"
    },
    {
      "anonymous": false,
      "inputs": [
        {
          "indexed": true,
          "internalType": "string",
          "name": "name",
          "type": "string"
        },
        {
          "indexed": false,
          "internalType": "uint8",
          "name": "dice",
          "type": "uint8"
        }
      ],
      "name": "moveIsMade",
      "type": "event"
    },
    {
      "anonymous": false,
      "inputs": [
        {
          "indexed": true,
          "internalType": "string",
          "name": "name",
          "type": "string"
        },
        {
          "indexed": false,
          "internalType": "uint8",
          "name": "station",
          "type": "uint8"
        }
      ],
      "name": "stationBought",
      "type": "event"
    },
    {
      "constant": true,
      "inputs": [],
      "name": "getMaxNumberOfPlayers",
      "outputs": [
        {
          "internalType": "uint256",
          "name": "",
          "type": "uint256"
        }
      ],
      "payable": false,
      "stateMutability": "pure",
      "type": "function"
    },
    {
      "constant": true,
      "inputs": [],
      "name": "getNumberOfStations",
      "outputs": [
        {
          "internalType": "uint256",
          "name": "",
          "type": "uint256"
        }
      ],
      "payable": false,
      "stateMutability": "pure",
      "type": "function"
    },
    {
      "constant": true,
      "inputs": [],
      "name": "getNumberOfPlayers",
      "outputs": [
        {
          "internalType": "uint256",
          "name": "",
          "type": "uint256"
        }
      ],
      "payable": false,
      "stateMutability": "view",
      "type": "function"
    },
    {
      "constant": true,
      "inputs": [
        {
          "internalType": "uint256",
          "name": "index",
          "type": "uint256"
        }
      ],
      "name": "getPlayerByIndex",
      "outputs": [
        {
          "components": [
            {
              "internalType": "address",
              "name": "addr",
              "type": "address"
            },
            {
              "internalType": "string",
              "name": "name",
              "type": "string"
            },
            {
              "internalType": "int256",
              "name": "money",
              "type": "int256"
            },
            {
              "internalType": "uint8",
              "name": "position",
              "type": "uint8"
            },
            {
              "internalType": "uint8",
              "name": "movesInPrison",
              "type": "uint8"
            },
            {
              "internalType": "bool",
              "name": "canBuyStation",
              "type": "bool"
            }
          ],
          "internalType": "struct Monopoly.Player",
          "name": "",
          "type": "tuple"
        }
      ],
      "payable": false,
      "stateMutability": "view",
      "type": "function"
    },
    {
      "constant": true,
      "inputs": [
        {
          "internalType": "uint256",
          "name": "index",
          "type": "uint256"
        }
      ],
      "name": "getStationByIndex",
      "outputs": [
        {
          "components": [
            {
              "internalType": "enum Monopoly.StationCondition",
              "name": "condition",
              "type": "uint8"
            },
            {
              "internalType": "uint8",
              "name": "owner",
              "type": "uint8"
            }
          ],
          "internalType": "struct Monopoly.Station",
          "name": "",
          "type": "tuple"
        }
      ],
      "payable": false,
      "stateMutability": "view",
      "type": "function"
    },
    {
      "constant": true,
      "inputs": [],
      "name": "getNumberOfYourPlayer",
      "outputs": [
        {
          "internalType": "bool",
          "name": "",
          "type": "bool"
        },
        {
          "internalType": "uint8",
          "name": "",
          "type": "uint8"
        }
      ],
      "payable": false,
      "stateMutability": "view",
      "type": "function"
    },
    {
      "constant": true,
      "inputs": [],
      "name": "isGameActive",
      "outputs": [
        {
          "internalType": "bool",
          "name": "",
          "type": "bool"
        }
      ],
      "payable": false,
      "stateMutability": "view",
      "type": "function"
    },
    {
      "constant": true,
      "inputs": [],
      "name": "getWhoseMove",
      "outputs": [
        {
          "internalType": "string",
          "name": "name",
          "type": "string"
        }
      ],
      "payable": false,
      "stateMutability": "view",
      "type": "function"
    },
    {
      "constant": false,
      "inputs": [
        {
          "internalType": "string",
          "name": "name",
          "type": "string"
        }
      ],
      "name": "enroll",
      "outputs": [
        {
          "internalType": "bool",
          "name": "",
          "type": "bool"
        }
      ],
      "payable": false,
      "stateMutability": "nonpayable",
      "type": "function"
    },
    {
      "constant": false,
      "inputs": [],
      "name": "makeMove",
      "outputs": [
        {
          "internalType": "bool",
          "name": "",
          "type": "bool"
        }
      ],
      "payable": false,
      "stateMutability": "nonpayable",
      "type": "function"
    },
    {
      "constant": false,
      "inputs": [
        {
          "internalType": "bool",
          "name": "decision",
          "type": "bool"
        }
      ],
      "name": "buyStation",
      "outputs": [
        {
          "internalType": "bool",
          "name": "",
          "type": "bool"
        }
      ],
      "payable": false,
      "stateMutability": "nonpayable",
      "type": "function"
    }
  ],
  "bytecode": "0x608060405260008060006101000a81548160ff021916908360ff16021790555060008060016101000a81548160ff021916908360ff16021790555060008060026101000a81548160ff0219169083151502179055503480156200006157600080fd5b506001600260006001815260200190815260200160002060000160006101000a81548160ff021916908360028111156200009757fe5b02179055506001600260006002815260200190815260200160002060000160006101000a81548160ff02191690836002811115620000d157fe5b02179055506001600260006005815260200190815260200160002060000160006101000a81548160ff021916908360028111156200010b57fe5b02179055506001600260006007815260200190815260200160002060000160006101000a81548160ff021916908360028111156200014557fe5b02179055506001600260006008815260200190815260200160002060000160006101000a81548160ff021916908360028111156200017f57fe5b0217905550600160026000600b815260200190815260200160002060000160006101000a81548160ff02191690836002811115620001b957fe5b021790555061260380620001ce6000396000f3fe608060405234801561001057600080fd5b50600436106100a95760003560e01c806364bb514f1161007157806364bb514f1461015657806367b09cdb14610174578063f0633910146101a4578063f06e0731146101c3578063f48f0d8d146101f3578063fd6673f514610223576100a9565b80630c0ef2b0146100ae578063387a6d6f146100cc5780633f44b8cf146100ea5780633f871fd414610108578063487e42c114610138575b600080fd5b6100b6610241565b6040516100c3919061210a565b60405180910390f35b6100d4610257565b6040516100e1919061210a565b60405180910390f35b6100f2610629565b6040516100ff919061214e565b60405180910390f35b610122600480360361011d9190810190611b0d565b6106f0565b60405161012f919061210a565b60405180910390f35b610140610b00565b60405161014d91906123c7565b60405180910390f35b61015e610b0c565b60405161016b91906123c7565b60405180910390f35b61018e60048036036101899190810190611b36565b610b18565b60405161019b919061210a565b60405180910390f35b6101ac610c95565b6040516101ba929190612125565b60405180910390f35b6101dd60048036036101d89190810190611b77565b610d61565b6040516101ea91906123ac565b60405180910390f35b61020d60048036036102089190810190611b77565b610dd8565b60405161021a919061238a565b60405180910390f35b61022b610f5c565b60405161023891906123c7565b60405180910390f35b60008060029054906101000a900460ff16905090565b6000600160008060019054906101000a900460ff1660ff16815260200190815260200160002060000160009054906101000a900473ffffffffffffffffffffffffffffffffffffffff1673ffffffffffffffffffffffffffffffffffffffff163373ffffffffffffffffffffffffffffffffffffffff1614801561030d5750600160008060019054906101000a900460ff1660ff16815260200190815260200160002060030160029054906101000a900460ff16155b80156103255750600060029054906101000a900460ff165b15610621576000610334610f75565b9050600060016006838161034457fe5b060190506000600160008060019054906101000a900460ff1660ff16815260200190815260200160002060030160019054906101000a900460ff1660ff1611156103e557600160008060019054906101000a900460ff1660ff168152602001908152602001600020600301600181819054906101000a900460ff16809291906001900391906101000a81548160ff021916908360ff1602179055505061046c565b600c60ff1681600160008060019054906101000a900460ff1660ff16815260200190815260200160002060030160009054906101000a900460ff160160ff168161042b57fe5b06600160008060019054906101000a900460ff1660ff16815260200190815260200160002060030160006101000a81548160ff021916908360ff1602179055505b600160008060019054906101000a900460ff1660ff1681526020019081526020016000206001016040516104a091906120d1565b60405180910390207f6434cf9d6bb70b45127d2f7b3852c98ba240d529f51ab5d63f95c10d9c52606c826040516104d791906123e2565b60405180910390a26104e7610f95565b600160028111156104f457fe5b60026000600160008060019054906101000a900460ff1660ff16815260200190815260200160002060030160009054906101000a900460ff1660ff16815260200190815260200160002060000160009054906101000a900460ff16600281111561055a57fe5b14801561058f575060c8600160008060019054906101000a900460ff1660ff1681526020019081526020016000206002015412155b156105d85760018060008060019054906101000a900460ff1660ff16815260200190815260200160002060030160026101000a81548160ff021916908315150217905550610616565b600260ff166001600060019054906101000a900460ff160160ff16816105fa57fe5b06600060016101000a81548160ff021916908360ff1602179055505b600192505050610626565b600090505b90565b6060600160008060019054906101000a900460ff1660ff1681526020019081526020016000206001018054600181600116156101000203166002900480601f0160208091040260200160405190810160405280929190818152602001828054600181600116156101000203166002900480156106e65780601f106106bb576101008083540402835291602001916106e6565b820191906000526020600020905b8154815290600101906020018083116106c957829003601f168201915b5050505050905090565b6000600160008060019054906101000a900460ff1660ff16815260200190815260200160002060000160009054906101000a900473ffffffffffffffffffffffffffffffffffffffff1673ffffffffffffffffffffffffffffffffffffffff163373ffffffffffffffffffffffffffffffffffffffff161480156107a55750600160008060019054906101000a900460ff1660ff16815260200190815260200160002060030160029054906101000a900460ff165b80156107bd5750600060029054906101000a900460ff165b15610af6578180156107f7575060c8600160008060019054906101000a900460ff1660ff1681526020019081526020016000206002015412155b15610a70576002806000600160008060019054906101000a900460ff1660ff16815260200190815260200160002060030160009054906101000a900460ff1660ff16815260200190815260200160002060000160006101000a81548160ff0219169083600281111561086557fe5b0217905550600060019054906101000a900460ff1660026000600160008060019054906101000a900460ff1660ff16815260200190815260200160002060030160009054906101000a900460ff1660ff16815260200190815260200160002060000160016101000a81548160ff021916908360ff16021790555060c8600160008060019054906101000a900460ff1660ff1681526020019081526020016000206002015403600160008060019054906101000a900460ff1660ff16815260200190815260200160002060020181905550600160008060019054906101000a900460ff1660ff16815260200190815260200160002060010160405161096991906120d1565b60405180910390207fb2194612f0717427ddf97a50bf73448cc071c859adf94d3c347dae1f91d490b6600160008060019054906101000a900460ff1660ff16815260200190815260200160002060030160009054906101000a900460ff166040516109d491906123e2565b60405180910390a27f0fa22c3cca6da304e13caca9d41e06d244b252514fd0199940b2714dcad391e4600160008060019054906101000a900460ff1660ff168152602001908152602001600020600101600160008060019054906101000a900460ff1660ff16815260200190815260200160002060030160009054906101000a900460ff16604051610a679291906121b5565b60405180910390a15b6000600160008060019054906101000a900460ff1660ff16815260200190815260200160002060030160026101000a81548160ff021916908315150217905550600260ff166001600060019054906101000a900460ff160160ff1681610ad257fe5b06600060016101000a81548160ff021916908360ff16021790555060019050610afb565b600090505b919050565b6000600c60ff16905090565b6000600260ff16905090565b6000600260ff166000809054906101000a900460ff1660ff16108015610b445750610b423361188a565b155b15610c8b5733600160008060009054906101000a900460ff1660ff16815260200190815260200160002060000160006101000a81548173ffffffffffffffffffffffffffffffffffffffff021916908373ffffffffffffffffffffffffffffffffffffffff16021790555060c8600160008060009054906101000a900460ff1660ff1681526020019081526020016000206002018190555081600160008060009054906101000a900460ff1660ff1681526020019081526020016000206001019080519060200190610c1792919061196e565b5060008081819054906101000a900460ff168092919060010191906101000a81548160ff021916908360ff16021790555050600260ff166000809054906101000a900460ff1660ff161415610c82576001600060026101000a81548160ff0219169083151502179055505b60019050610c90565b600090505b919050565b60008060008090505b600260ff168160ff161015610d34573373ffffffffffffffffffffffffffffffffffffffff16600160008360ff16815260200190815260200160002060000160009054906101000a900473ffffffffffffffffffffffffffffffffffffffff1673ffffffffffffffffffffffffffffffffffffffff161415610d27576001819250925050610d5d565b8080600101915050610c9e565b5060007fffffffffffffffffffffffffffffffffffffffffffffffffffffffffffffffff915091505b9091565b610d696119ee565b600260008381526020019081526020016000206040518060400160405290816000820160009054906101000a900460ff166002811115610da557fe5b6002811115610db057fe5b81526020016000820160019054906101000a900460ff1660ff1660ff16815250509050919050565b610de0611a16565b600160008381526020019081526020016000206040518060c00160405290816000820160009054906101000a900473ffffffffffffffffffffffffffffffffffffffff1673ffffffffffffffffffffffffffffffffffffffff1673ffffffffffffffffffffffffffffffffffffffff168152602001600182018054600181600116156101000203166002900480601f016020809104026020016040519081016040528092919081815260200182805460018160011615610100020316600290048015610eed5780601f10610ec257610100808354040283529160200191610eed565b820191906000526020600020905b815481529060010190602001808311610ed057829003601f168201915b50505050508152602001600282015481526020016003820160009054906101000a900460ff1660ff1660ff1681526020016003820160019054906101000a900460ff1660ff1660ff1681526020016003820160029054906101000a900460ff1615151515815250509050919050565b60008060009054906101000a900460ff1660ff16905090565b60006060610f824261192a565b9050808051906020012060001c91505090565b6009600160008060019054906101000a900460ff1660ff16815260200190815260200160002060030160009054906101000a900460ff1660ff1614156110eb577f0fa22c3cca6da304e13caca9d41e06d244b252514fd0199940b2714dcad391e4600160008060019054906101000a900460ff1660ff168152602001908152602001600020600101600160008060019054906101000a900460ff1660ff16815260200190815260200160002060030160009054906101000a900460ff1660405161106092919061223b565b60405180910390a16003600160008060019054906101000a900460ff1660ff16815260200190815260200160002060030160006101000a81548160ff021916908360ff1602179055506003600160008060019054906101000a900460ff1660ff16815260200190815260200160002060030160016101000a81548160ff021916908360ff1602179055505b6000600160008060019054906101000a900460ff1660ff16815260200190815260200160002060030160009054906101000a900460ff1660ff1614156111f55760c8600160008060019054906101000a900460ff1660ff168152602001908152602001600020600201600082825401925050819055507f0fa22c3cca6da304e13caca9d41e06d244b252514fd0199940b2714dcad391e4600160008060019054906101000a900460ff1660ff168152602001908152602001600020600101600160008060019054906101000a900460ff1660ff16815260200190815260200160002060030160009054906101000a900460ff166040516111ec9291906122c1565b60405180910390a15b6004600160008060019054906101000a900460ff1660ff16815260200190815260200160002060030160009054906101000a900460ff1660ff1614156112ff576064600160008060019054906101000a900460ff1660ff168152602001908152602001600020600201600082825403925050819055507f0fa22c3cca6da304e13caca9d41e06d244b252514fd0199940b2714dcad391e4600160008060019054906101000a900460ff1660ff168152602001908152602001600020600101600160008060019054906101000a900460ff1660ff16815260200190815260200160002060030160009054906101000a900460ff166040516112f6929190612304565b60405180910390a15b600a600160008060019054906101000a900460ff1660ff16815260200190815260200160002060030160009054906101000a900460ff1660ff1614156115b0576000611349610f75565b9050600060036006838161135957fe5b048161136157fe5b06905060008160ff16141561143e576064600160008060019054906101000a900460ff1660ff168152602001908152602001600020600201600082825403925050819055507f0fa22c3cca6da304e13caca9d41e06d244b252514fd0199940b2714dcad391e4600160008060019054906101000a900460ff1660ff168152602001908152602001600020600101600160008060019054906101000a900460ff1660ff16815260200190815260200160002060030160009054906101000a900460ff16604051611431929190612347565b60405180910390a16115ad565b60018160ff161415611518576064600160008060019054906101000a900460ff1660ff168152602001908152602001600020600201600082825401925050819055507f0fa22c3cca6da304e13caca9d41e06d244b252514fd0199940b2714dcad391e4600160008060019054906101000a900460ff1660ff168152602001908152602001600020600101600160008060019054906101000a900460ff1660ff16815260200190815260200160002060030160009054906101000a900460ff1660405161150b92919061227e565b60405180910390a16115ac565b7f0fa22c3cca6da304e13caca9d41e06d244b252514fd0199940b2714dcad391e4600160008060019054906101000a900460ff1660ff168152602001908152602001600020600101600160008060019054906101000a900460ff1660ff16815260200190815260200160002060030160009054906101000a900460ff166040516115a39291906121f8565b60405180910390a15b5b50505b6002808111156115bc57fe5b60026000600160008060019054906101000a900460ff1660ff16815260200190815260200160002060030160009054906101000a900460ff1660ff16815260200190815260200160002060000160009054906101000a900460ff16600281111561162257fe5b14801561169e5750600060019054906101000a900460ff1660ff1660026000600160008060019054906101000a900460ff1660ff16815260200190815260200160002060030160009054906101000a900460ff1660ff16815260200190815260200160002060000160019054906101000a900460ff1660ff1614155b15611888576032600160008060019054906101000a900460ff1660ff1681526020019081526020016000206002016000828254039250508190555060326001600060026000600160008060019054906101000a900460ff1660ff16815260200190815260200160002060030160009054906101000a900460ff1660ff16815260200190815260200160002060000160019054906101000a900460ff1660ff1681526020019081526020016000206002016000828254019250508190555060606001600060026000600160008060019054906101000a900460ff1660ff16815260200190815260200160002060030160009054906101000a900460ff1660ff16815260200190815260200160002060000160019054906101000a900460ff1660ff1681526020019081526020016000206001016040516020016117e091906120e8565b60405160208183030381529060405290507f0fa22c3cca6da304e13caca9d41e06d244b252514fd0199940b2714dcad391e4600160008060019054906101000a900460ff1660ff168152602001908152602001600020600101600160008060019054906101000a900460ff1660ff16815260200190815260200160002060030160009054906101000a900460ff168360405161187e93929190612170565b60405180910390a1505b565b600080600090505b600260ff1681101561191f578273ffffffffffffffffffffffffffffffffffffffff166001600083815260200190815260200160002060000160009054906101000a900473ffffffffffffffffffffffffffffffffffffffff1673ffffffffffffffffffffffffffffffffffffffff161415611912576001915050611925565b8080600101915050611892565b50600090505b919050565b606060206040519080825280601f01601f1916602001820160405280156119605781602001600182028038833980820191505090505b509050816020820152919050565b828054600181600116156101000203166002900490600052602060002090601f016020900481019282601f106119af57805160ff19168380011785556119dd565b828001600101855582156119dd579182015b828111156119dc5782518255916020019190600101906119c1565b5b5090506119ea9190611a6a565b5090565b604051806040016040528060006002811115611a0657fe5b8152602001600060ff1681525090565b6040518060c00160405280600073ffffffffffffffffffffffffffffffffffffffff1681526020016060815260200160008152602001600060ff168152602001600060ff1681526020016000151581525090565b611a8c91905b80821115611a88576000816000905550600101611a70565b5090565b90565b600081359050611a9e81612592565b92915050565b600082601f830112611ab557600080fd5b8135611ac8611ac38261242a565b6123fd565b91508082526020830160208301858383011115611ae457600080fd5b611aef838284612532565b50505092915050565b600081359050611b07816125a9565b92915050565b600060208284031215611b1f57600080fd5b6000611b2d84828501611a8f565b91505092915050565b600060208284031215611b4857600080fd5b600082013567ffffffffffffffff811115611b6257600080fd5b611b6e84828501611aa4565b91505092915050565b600060208284031215611b8957600080fd5b6000611b9784828501611af8565b91505092915050565b611ba9816124ae565b82525050565b611bb8816124c0565b82525050565b611bc7816124c0565b82525050565b611bd681612520565b82525050565b611be5816124df565b82525050565b6000611bf682612476565b611c008185612492565b9350611c10818560208601612541565b611c1981612574565b840191505092915050565b6000611c2f8261246b565b611c398185612481565b9350611c49818560208601612541565b611c5281612574565b840191505092915050565b600081546001811660008114611c7a5760018114611ca057611ce4565b607f6002830416611c8b8187612492565b955060ff198316865260208601935050611ce4565b60028204611cae8187612492565b9550611cb985612456565b60005b82811015611cdb57815481890152600182019150602081019050611cbc565b80880195505050505b505092915050565b600081546001811660008114611d095760018114611d2e57611d72565b607f6002830416611d1a81876124a3565b955060ff1983168652808601935050611d72565b60028204611d3c81876124a3565b9550611d4785612456565b60005b82811015611d6957815481890152600182019150602081019050611d4a565b82880195505050505b505092915050565b6000611d87601183612492565b91507f53746174696f6e20697320626f756768740000000000000000000000000000006000830152602082019050919050565b6000611dc7602483612492565b91507f4368616e63652073746174696f6e2c20746861742074696d6520646f206e6f7460008301527f68696e67000000000000000000000000000000000000000000000000000000006020830152604082019050919050565b6000611e2d601283612492565b91507f476f20746f206a61696c2073746174696f6e00000000000000000000000000006000830152602082019050919050565b6000611e6d602283612492565b91507f4368616e63652073746174696f6e2c20746861742074696d652067657420313060008301527f30240000000000000000000000000000000000000000000000000000000000006020830152604082019050919050565b6000611ed3601483612492565b91507f474f2073746174696f6e2c2067657420323030240000000000000000000000006000830152602082019050919050565b6000611f13601c83612492565b91507f4c7578757279207461782073746174696f6e2c207061792031303024000000006000830152602082019050919050565b6000611f536019836124a3565b91507f546f6c6c2073746174696f6e2c207061792035302420746f20000000000000006000830152601982019050919050565b6000611f93602283612492565b91507f4368616e63652073746174696f6e2c20746861742074696d652070617920313060008301527f30240000000000000000000000000000000000000000000000000000000000006020830152604082019050919050565b600060c0830160008301516120046000860182611ba0565b506020830151848203602086015261201c8282611c24565b91505060408301516120316040860182611bdc565b50606083015161204460608601826120b3565b50608083015161205760808601826120b3565b5060a083015161206a60a0860182611baf565b508091505092915050565b60408201600082015161208b6000850182611bcd565b50602082015161209e60208501826120b3565b50505050565b6120ad81612509565b82525050565b6120bc81612513565b82525050565b6120cb81612513565b82525050565b60006120dd8284611cec565b915081905092915050565b60006120f382611f46565b91506120ff8284611cec565b915081905092915050565b600060208201905061211f6000830184611bbe565b92915050565b600060408201905061213a6000830185611bbe565b61214760208301846120c2565b9392505050565b600060208201905081810360008301526121688184611beb565b905092915050565b6000606082019050818103600083015261218a8186611c5d565b905061219960208301856120c2565b81810360408301526121ab8184611beb565b9050949350505050565b600060608201905081810360008301526121cf8185611c5d565b90506121de60208301846120c2565b81810360408301526121ef81611d7a565b90509392505050565b600060608201905081810360008301526122128185611c5d565b905061222160208301846120c2565b818103604083015261223281611dba565b90509392505050565b600060608201905081810360008301526122558185611c5d565b905061226460208301846120c2565b818103604083015261227581611e20565b90509392505050565b600060608201905081810360008301526122988185611c5d565b90506122a760208301846120c2565b81810360408301526122b881611e60565b90509392505050565b600060608201905081810360008301526122db8185611c5d565b90506122ea60208301846120c2565b81810360408301526122fb81611ec6565b90509392505050565b6000606082019050818103600083015261231e8185611c5d565b905061232d60208301846120c2565b818103604083015261233e81611f06565b90509392505050565b600060608201905081810360008301526123618185611c5d565b905061237060208301846120c2565b818103604083015261238181611f86565b90509392505050565b600060208201905081810360008301526123a48184611fec565b905092915050565b60006040820190506123c16000830184612075565b92915050565b60006020820190506123dc60008301846120a4565b92915050565b60006020820190506123f760008301846120c2565b92915050565b6000604051905081810181811067ffffffffffffffff8211171561242057600080fd5b8060405250919050565b600067ffffffffffffffff82111561244157600080fd5b601f19601f8301169050602081019050919050565b60008190508160005260206000209050919050565b600081519050919050565b600081519050919050565b600082825260208201905092915050565b600082825260208201905092915050565b600081905092915050565b60006124b9826124e9565b9050919050565b60008115159050919050565b60008190506124da82612585565b919050565b6000819050919050565b600073ffffffffffffffffffffffffffffffffffffffff82169050919050565b6000819050919050565b600060ff82169050919050565b600061252b826124cc565b9050919050565b82818337600083830152505050565b60005b8381101561255f578082015181840152602081019050612544565b8381111561256e576000848401525b50505050565b6000601f19601f8301169050919050565b6003811061258f57fe5b50565b61259b816124c0565b81146125a657600080fd5b50565b6125b281612509565b81146125bd57600080fd5b5056fea365627a7a723158203b38188a30f3baf22379dd07387fc75875bf9f1cd5429f1e97aecadc956045546c6578706572696d656e74616cf564736f6c63430005100040",
  "source": "pragma solidity ^0.5.0;\npragma experimental ABIEncoderV2;\n\ncontract Monopoly\n{\n\tuint8 currentNumberOfPlayers = 0;\n\tuint8 constant maxNumberOfPlayers = 2;\n\tuint8 whoseMove = 0;\n\tbool gameIsActive = false; \n\tuint8 constant numberOfStations = 12;\n\n\tstruct Player\n\t{\n\t\taddress addr;\n\t\tstring name;\n\t\tint money;\n\t\tuint8 position;\n\t\tuint8 movesInPrison;\n\t\tbool canBuyStation;\n\t}\n\n\tenum StationCondition { None, Available, Bought }\n\tstruct Station\n\t{\n\t\tStationCondition condition;\n\t\tuint8 owner;\n\t}\n\n\tmapping (uint => Player) players;\n\tmapping (uint => Station) stations;\n\n\tconstructor() public\n\t{\n\t\t// stations corresponding to available stations\n\t\tstations[1].condition = StationCondition.Available;\n\t\tstations[2].condition = StationCondition.Available;\n\t\tstations[5].condition = StationCondition.Available;\n\t\tstations[7].condition = StationCondition.Available;\n\t\tstations[8].condition = StationCondition.Available;\n\t\tstations[11].condition = StationCondition.Available;\n\t}\n\n\t// ------------------------------------------ //\n\t// ---------| Public functions |------------- //\n\t// ------------------------------------------ //\n\n\t// ---------|  get functions   |------------- //\n\n\tfunction getMaxNumberOfPlayers() public pure returns (uint)\n\t{\n\t\treturn maxNumberOfPlayers;\n\t}\n\n\tfunction getNumberOfStations() public pure returns (uint)\n\t{\n\t\treturn numberOfStations;\n\t}\n\t\n\tfunction getNumberOfPlayers() public view returns (uint)\n\t{\n\t\treturn currentNumberOfPlayers;\n\t}\n\n\tfunction getPlayerByIndex(uint index) public view returns (Player memory)\n\t{\n\t\treturn players[index];\n\t}\n\n\tfunction getStationByIndex(uint index) public view returns (Station memory)\n\t{\n\t\treturn stations[index];\n\t}\n\n\t// return number in blockchain base to access your player\n\tfunction getNumberOfYourPlayer() public view returns (bool, uint8)\n\t{\n\t\tfor (uint8 i=0; i<maxNumberOfPlayers; i++)\n\t\t{\n\t\t\tif (players[i].addr == msg.sender)\n\t\t\t{\n\t\t\t\treturn (true, i);\n\t\t\t}\n\t\t}\n\n\t\treturn (false, uint8(-1));\n\t}\n\n\t// has the game already started but not finished yet\n\tfunction isGameActive() public view returns (bool)\n\t{\n\t\treturn gameIsActive;\n\t}\n\n\t// who can make move now? returns player's name\n\tfunction getWhoseMove() public view returns (string memory name)\n\t{\n\t\treturn players[whoseMove].name;\n\t}\n\n\t// ---------|  action functions   |------------- //\n\n\t// enroll the game to play, need to call to start the game\n\tfunction enroll(string memory name) public returns (bool)\n\t{\n\t\t// if there are free spaces and player is not yet in game\n\t\tif ((currentNumberOfPlayers < maxNumberOfPlayers) && (!isPlayer(msg.sender)))\n\t\t{\n\t\t\tplayers[currentNumberOfPlayers].addr = msg.sender;\n\t\t\tplayers[currentNumberOfPlayers].money = 200;\n\t\t\tplayers[currentNumberOfPlayers].name = name;\n\n\t\t\tcurrentNumberOfPlayers++;\n\n\t\t\tif (currentNumberOfPlayers == maxNumberOfPlayers)\n\t\t\t{\n\t\t\t\tgameIsActive = true;\n\t\t\t}\n\n\t\t\treturn true;\n\t\t}\n\t\telse\n\t\t{\n\t\t\treturn false;\n\t\t}\n\t}\n\n\t// make a move if it is ours\n\tfunction makeMove() public returns (bool)\n\t{\n\t\t// if user is appropriate\n\t\tif ((msg.sender == players[whoseMove].addr) && !players[whoseMove].canBuyStation && gameIsActive)\n\t\t{\n\t\t\t// generate random number for dice\n\t\t\tuint256 r = timestampHash();\n\t\t\tuint8 dice = uint8(r % 6 + 1);\n\n\t\t\t// handle case when player is in prison\n\t\t\tif (players[whoseMove].movesInPrison > 0)\n\t\t\t{\n\t\t\t\tplayers[whoseMove].movesInPrison--;\n\t\t\t}\n\t\t\telse\n\t\t\t{\n\t\t\t\tplayers[whoseMove].position = uint8((players[whoseMove].position + dice) % numberOfStations);\n\t\t\t}\n\n\t\t\t// emit event for returning dice value\n\t\t\temit moveIsMade(players[whoseMove].name, dice);\n\n\t\t\t// handle cases with stations\n\t\t\thandleStations();\n\n\t\t\t// if the station can be bought, return actionRequired=true \n\t\t\tif ((stations[players[whoseMove].position].condition == StationCondition.Available) && (players[whoseMove].money >= 200))\n\t\t\t{\n\t\t\t\tplayers[whoseMove].canBuyStation = true;\n\t\t\t}\n\t\t\t// otherwise pass the move\n\t\t\telse\n\t\t\t{\n\t\t\t\twhoseMove = ((whoseMove) + 1) % maxNumberOfPlayers;\n\t\t\t}\n\n\t\t\treturn true;\n\t\t}\n\t\telse\n\t\t{\n\t\t\treturn false;\n\t\t}\n\t}\n\n\t// buy station if now we can\n\tfunction buyStation(bool decision) public returns (bool)\n\t{\n\t\tif ((msg.sender == players[whoseMove].addr) && players[whoseMove].canBuyStation && gameIsActive)\n\t\t{\n\t\t\tif (decision && (players[whoseMove].money >= 200))\n\t\t\t{\n\t\t\t\tstations[players[whoseMove].position].condition = StationCondition.Bought;\n\t\t\t\tstations[players[whoseMove].position].owner = whoseMove;\n\n\t\t\t\tplayers[whoseMove].money = players[whoseMove].money - 200;\n\t\t\t\t\n\t\t\t\temit stationBought(players[whoseMove].name, players[whoseMove].position);\n\t\t\t\temit actionHappened(players[whoseMove].name, players[whoseMove].position, \"Station is bought\");\n\t\t\t}\n\t\t\n\t\t\tplayers[whoseMove].canBuyStation = false;\n\t\t\twhoseMove = ((whoseMove) + 1) % maxNumberOfPlayers;\n\n\t\t\treturn true;\n\t\t}\n\n\t\treturn false;\n\t}\n\n\t// ------------------------------------------ //\n\t// ---------|      Events       |------------ //\n\t// ------------------------------------------ //\n\n\t// event for returning dice value\n\tevent moveIsMade(string indexed name, uint8 dice);\n\n\t// event for writing log info about current action such as getting into prison and so on\n\tevent actionHappened(string name, uint8 position, string action);\n\n\t// event for writing log info about stations purchases\n\tevent stationBought(string indexed name, uint8 station);\n\n\t// ------------------------------------------ //\n\t// ---------| Private functions |------------ //\n\t// ------------------------------------------ //\n\n\t// handle different cases for stations\n\tfunction handleStations() private\n\t{\n\t\t// \"go to prison\" station\n\t\tif (players[whoseMove].position == 9)\n\t\t{\n\t\t\temit actionHappened(players[whoseMove].name, players[whoseMove].position, \"Go to jail station\");\n\n\t\t\tplayers[whoseMove].position = 3;\n\t\t\tplayers[whoseMove].movesInPrison = 3; // 3 more moves in prison\n\t\t}\n\n\t\t// go station, get 200$\n\t\tif (players[whoseMove].position == 0) // \"go\" station\n\t\t{\n\t\t\tplayers[whoseMove].money += 200;\n\t\t\temit actionHappened(players[whoseMove].name, players[whoseMove].position, \"GO station, get 200$\");\n\t\t}\n\n\t\t// luxury tax station, pay 100$\n\t\tif (players[whoseMove].position == 4) // \"luxury tax\" station\n\t\t{\n\t\t\tplayers[whoseMove].money -= 100;\n\t\t\temit actionHappened(players[whoseMove].name, players[whoseMove].position, \"Luxury tax station, pay 100$\");\n\t\t}\n\n\t\t// chanse station, either get 100$ or pay 100$ or do nothing\n\t\tif (players[whoseMove].position == 10) // \"chanse\" station\n\t\t{\n\t\t\t// generate random number for action in this case\n\t\t\tuint256 r = timestampHash();\n\t\t\tuint8 action = uint8((r / 6) % 3); // division by 6 for removing correlation with dice value\n\n\t\t\tif (action == 0)\n\t\t\t{\n\t\t\t\tplayers[whoseMove].money -= 100;\n\t\t\t\temit actionHappened(players[whoseMove].name, players[whoseMove].position, \"Chance station, that time pay 100$\");\n\t\t\t}\n\t\t\telse if (action == 1)\n\t\t\t{\n\t\t\t\tplayers[whoseMove].money += 100;\n\t\t\t\temit actionHappened(players[whoseMove].name, players[whoseMove].position, \"Chance station, that time get 100$\");\n\t\t\t}\n\t\t\telse\n\t\t\t{\n\t\t\t\temit actionHappened(players[whoseMove].name, players[whoseMove].position, \"Chance station, that time do nothing\");\n\t\t\t}\n\t\t}\n\t\n\t\t// not our station, pay 50$ to owner\n\t\tif ((stations[players[whoseMove].position].condition == StationCondition.Bought) && (stations[players[whoseMove].position].owner != whoseMove))\n\t\t{\n\t\t\tplayers[whoseMove].money -= 50;\n\t\t\tplayers[stations[players[whoseMove].position].owner].money += 50;\n\n\t\t\tstring memory message = string(abi.encodePacked(\"Toll station, pay 50$ to \", players[stations[players[whoseMove].position].owner].name));\n\t\t\temit actionHappened(players[whoseMove].name, players[whoseMove].position, message);\n\t\t}\n\t}\n\n\t// check has this address already signed up for the game\n\tfunction isPlayer(address player) private view returns (bool)\n\t{\n\t\tfor (uint i=0; i<maxNumberOfPlayers; i++)\n\t\t{\n\t\t\tif (players[i].addr == player)\n\t\t\t{\n\t\t\t\treturn true;\n\t\t\t}\n\t\t}\n\n\t\treturn false;\n\t}\n\n\t// get hash of timestamp of last block - can be considered as random()\n\tfunction timestampHash() private view returns (uint256)\n\t{\n\t\tbytes memory timestamp = toBytes(block.timestamp);\n\t\treturn uint256(keccak256(timestamp));\n\t}\n\n\t// convert to bytes\n\tfunction toBytes(uint256 x) private pure returns (bytes memory b)\n\t{\n\t\tb = new bytes(32);\n\t\tassembly { mstore(add(b, 32), x) }\n\t}\n}\n",
  "sourcePath": "/home/vlad/Work/Ethereum-Blockchain-Project-MIPT/contract/contracts/Monopoly.sol",
  "compiler": {
    "name": "solc",
    "version": "0.5.16+commit.9c3226ce.Emscripten.clang"
  },
  "schemaVersion": "3.3.1",
  "updatedAt": "2020-11-20T11:14:34.329Z",
  "devdoc": {
    "methods": {}
  },
  "userdoc": {
    "methods": {}
  }
}